{
  "_format": "hh-sol-artifact-1",
  "contractName": "MetaCard",
  "sourceName": "contracts/MetaCard.sol",
  "abi": [
    {
      "anonymous": false,
      "inputs": [
        {
          "indexed": false,
          "internalType": "address",
          "name": "owner",
          "type": "address"
        },
        {
          "indexed": false,
          "internalType": "address",
          "name": "contactAddress",
          "type": "address"
        }
      ],
      "name": "AddContact",
      "type": "event"
    },
    {
      "anonymous": false,
      "inputs": [
        {
          "indexed": true,
          "internalType": "address",
          "name": "_owner",
          "type": "address"
        },
        {
          "indexed": false,
          "internalType": "uint256",
          "name": "id",
          "type": "uint256"
        },
        {
          "indexed": false,
          "internalType": "string",
          "name": "name",
          "type": "string"
        },
        {
          "indexed": false,
          "internalType": "string",
          "name": "link",
          "type": "string"
        }
      ],
      "name": "AddSocialLink",
      "type": "event"
    },
    {
      "anonymous": false,
      "inputs": [
        {
          "indexed": true,
          "internalType": "address",
          "name": "_owner",
          "type": "address"
        },
        {
          "indexed": false,
          "internalType": "uint256",
          "name": "id",
          "type": "uint256"
        },
        {
          "indexed": false,
          "internalType": "string",
          "name": "fullName",
          "type": "string"
        },
        {
          "indexed": false,
          "internalType": "string",
          "name": "title",
          "type": "string"
        },
        {
          "indexed": false,
          "internalType": "string",
          "name": "email",
          "type": "string"
        },
        {
          "indexed": false,
          "internalType": "string",
          "name": "phoneNumber",
          "type": "string"
        }
      ],
      "name": "CreateBusinessCard",
      "type": "event"
    },
    {
      "anonymous": false,
      "inputs": [
        {
          "indexed": false,
          "internalType": "address",
          "name": "owner",
          "type": "address"
        },
        {
          "indexed": false,
          "internalType": "address",
          "name": "contactAddress",
          "type": "address"
        }
      ],
      "name": "RemoveContact",
      "type": "event"
    },
    {
      "anonymous": false,
      "inputs": [
        {
          "indexed": true,
          "internalType": "address",
          "name": "_owner",
          "type": "address"
        },
        {
          "indexed": false,
          "internalType": "uint256",
          "name": "id",
          "type": "uint256"
        }
      ],
      "name": "RemoveSocialLink",
      "type": "event"
    },
    {
      "anonymous": false,
      "inputs": [
        {
          "indexed": true,
          "internalType": "address",
          "name": "_owner",
          "type": "address"
        },
        {
          "indexed": false,
          "internalType": "string",
          "name": "fullName",
          "type": "string"
        },
        {
          "indexed": false,
          "internalType": "string",
          "name": "title",
          "type": "string"
        },
        {
          "indexed": false,
          "internalType": "string",
          "name": "email",
          "type": "string"
        },
        {
          "indexed": false,
          "internalType": "string",
          "name": "phoneNumber",
          "type": "string"
        }
      ],
      "name": "UpdateBusinessCard",
      "type": "event"
    },
    {
      "anonymous": false,
      "inputs": [
        {
          "indexed": true,
          "internalType": "address",
          "name": "_owner",
          "type": "address"
        },
        {
          "indexed": false,
          "internalType": "uint256",
          "name": "id",
          "type": "uint256"
        },
        {
          "indexed": false,
          "internalType": "string",
          "name": "name",
          "type": "string"
        },
        {
          "indexed": false,
          "internalType": "string",
          "name": "link",
          "type": "string"
        }
      ],
      "name": "UpdateSocialLink",
      "type": "event"
    },
    {
      "inputs": [
        {
          "internalType": "address",
          "name": "_contact",
          "type": "address"
        }
      ],
      "name": "addContact",
      "outputs": [],
      "stateMutability": "nonpayable",
      "type": "function"
    },
    {
      "inputs": [
        {
          "internalType": "string",
          "name": "_name",
          "type": "string"
        },
        {
          "internalType": "string",
          "name": "_link",
          "type": "string"
        }
      ],
      "name": "addSocialLink",
      "outputs": [],
      "stateMutability": "nonpayable",
      "type": "function"
    },
    {
      "inputs": [
        {
          "internalType": "address",
          "name": "",
          "type": "address"
        }
      ],
      "name": "allBusinessCards",
      "outputs": [
        {
          "internalType": "address",
          "name": "owner",
          "type": "address"
        },
        {
          "internalType": "uint256",
          "name": "id",
          "type": "uint256"
        },
        {
          "internalType": "string",
          "name": "fullName",
          "type": "string"
        },
        {
          "internalType": "string",
          "name": "title",
          "type": "string"
        },
        {
          "internalType": "string",
          "name": "email",
          "type": "string"
        },
        {
          "internalType": "string",
          "name": "phoneNumber",
          "type": "string"
        }
      ],
      "stateMutability": "view",
      "type": "function"
    },
    {
      "inputs": [
        {
          "internalType": "address",
          "name": "",
          "type": "address"
        },
        {
          "internalType": "uint256",
          "name": "",
          "type": "uint256"
        }
      ],
      "name": "contacts",
      "outputs": [
        {
          "internalType": "address",
          "name": "",
          "type": "address"
        }
      ],
      "stateMutability": "view",
      "type": "function"
    },
    {
      "inputs": [
        {
          "internalType": "string",
          "name": "_fullName",
          "type": "string"
        },
        {
          "internalType": "string",
          "name": "_title",
          "type": "string"
        },
        {
          "internalType": "string",
          "name": "_email",
          "type": "string"
        },
        {
          "internalType": "string",
          "name": "_phoneNumber",
          "type": "string"
        }
      ],
      "name": "createBusinessCard",
      "outputs": [],
      "stateMutability": "nonpayable",
      "type": "function"
    },
    {
      "inputs": [],
      "name": "getAllContacts",
      "outputs": [
        {
          "internalType": "address[]",
          "name": "",
          "type": "address[]"
        }
      ],
      "stateMutability": "view",
      "type": "function"
    },
    {
      "inputs": [],
      "name": "getBusinessCard",
      "outputs": [
        {
          "components": [
            {
              "internalType": "address",
              "name": "owner",
              "type": "address"
            },
            {
              "internalType": "uint256",
              "name": "id",
              "type": "uint256"
            },
            {
              "internalType": "string",
              "name": "fullName",
              "type": "string"
            },
            {
              "internalType": "string",
              "name": "title",
              "type": "string"
            },
            {
              "internalType": "string",
              "name": "email",
              "type": "string"
            },
            {
              "internalType": "string",
              "name": "phoneNumber",
              "type": "string"
            }
          ],
          "internalType": "struct MetaCard.BusinessCard",
          "name": "",
          "type": "tuple"
        }
      ],
      "stateMutability": "view",
      "type": "function"
    },
    {
      "inputs": [
        {
          "internalType": "address",
          "name": "_address",
          "type": "address"
        }
      ],
      "name": "getBusinessCardByAddress",
      "outputs": [
        {
          "components": [
            {
              "internalType": "address",
              "name": "owner",
              "type": "address"
            },
            {
              "internalType": "uint256",
              "name": "id",
              "type": "uint256"
            },
            {
              "internalType": "string",
              "name": "fullName",
              "type": "string"
            },
            {
              "internalType": "string",
              "name": "title",
              "type": "string"
            },
            {
              "internalType": "string",
              "name": "email",
              "type": "string"
            },
            {
              "internalType": "string",
              "name": "phoneNumber",
              "type": "string"
            }
          ],
          "internalType": "struct MetaCard.BusinessCard",
          "name": "",
          "type": "tuple"
        }
      ],
      "stateMutability": "view",
      "type": "function"
    },
    {
      "inputs": [],
      "name": "getBusinessCardsCount",
      "outputs": [
        {
          "internalType": "uint256",
          "name": "",
          "type": "uint256"
        }
      ],
      "stateMutability": "view",
      "type": "function"
    },
    {
      "inputs": [],
      "name": "getContactsCount",
      "outputs": [
        {
          "internalType": "uint256",
          "name": "",
          "type": "uint256"
        }
      ],
      "stateMutability": "view",
      "type": "function"
    },
    {
      "inputs": [],
      "name": "getSocialLinks",
      "outputs": [
        {
          "components": [
            {
              "internalType": "uint256",
              "name": "id",
              "type": "uint256"
            },
            {
              "internalType": "string",
              "name": "name",
              "type": "string"
            },
            {
              "internalType": "string",
              "name": "link",
              "type": "string"
            }
          ],
          "internalType": "struct MetaCard.SocialLink[]",
          "name": "",
          "type": "tuple[]"
        }
      ],
      "stateMutability": "view",
      "type": "function"
    },
    {
      "inputs": [],
      "name": "getSocialLinksCount",
      "outputs": [
        {
          "internalType": "uint256",
          "name": "",
          "type": "uint256"
        }
      ],
      "stateMutability": "view",
      "type": "function"
    },
    {
      "inputs": [
        {
          "internalType": "address",
          "name": "_contact",
          "type": "address"
        }
      ],
      "name": "removeContact",
      "outputs": [],
      "stateMutability": "nonpayable",
      "type": "function"
    },
    {
      "inputs": [
        {
          "internalType": "uint256",
          "name": "_id",
          "type": "uint256"
        }
      ],
      "name": "removeSocialLink",
      "outputs": [],
      "stateMutability": "nonpayable",
      "type": "function"
    },
    {
      "inputs": [
        {
          "internalType": "address",
          "name": "",
          "type": "address"
        },
        {
          "internalType": "uint256",
          "name": "",
          "type": "uint256"
        }
      ],
      "name": "socialLinks",
      "outputs": [
        {
          "internalType": "uint256",
          "name": "id",
          "type": "uint256"
        },
        {
          "internalType": "string",
          "name": "name",
          "type": "string"
        },
        {
          "internalType": "string",
          "name": "link",
          "type": "string"
        }
      ],
      "stateMutability": "view",
      "type": "function"
    },
    {
      "inputs": [
        {
          "internalType": "string",
          "name": "_fullName",
          "type": "string"
        },
        {
          "internalType": "string",
          "name": "_title",
          "type": "string"
        },
        {
          "internalType": "string",
          "name": "_email",
          "type": "string"
        },
        {
          "internalType": "string",
          "name": "_phoneNumber",
          "type": "string"
        }
      ],
      "name": "updateBusinessCard",
      "outputs": [],
      "stateMutability": "nonpayable",
      "type": "function"
    },
    {
      "inputs": [
        {
          "internalType": "uint256",
          "name": "_id",
          "type": "uint256"
        },
        {
          "internalType": "string",
          "name": "_name",
          "type": "string"
        },
        {
          "internalType": "string",
          "name": "_link",
          "type": "string"
        }
      ],
      "name": "updateSocialLink",
      "outputs": [],
      "stateMutability": "nonpayable",
      "type": "function"
    }
  ],
  "bytecode": "0x608060405234801561001057600080fd5b5061385c806100206000396000f3fe608060405234801561001057600080fd5b506004361061010b5760003560e01c8063a6a66072116100a2578063d9d3fa6411610071578063d9d3fa6414610297578063de9a345e146102b3578063e08a2554146102e3578063ef1d6ddd146102ff578063ff1aca1f1461031d5761010b565b8063a6a660721461020c578063b838f08014610228578063d02969ee1461025d578063d0e5cb25146102795761010b565b806331409541116100de578063314095411461019a57806379600b33146101b65780639dc623bf146101d4578063a414b379146101f05761010b565b806302a326b0146101105780630a8f41b41461012e5780630c4257fa1461014c5780632d5f20b31461016a575b600080fd5b61011861034f565b60405161012591906133e2565b60405180910390f35b610136610399565b604051610143919061333d565b60405180910390f35b610154610563565b60405161016191906133c0565b60405180910390f35b610184600480360381019061017f9190612d7c565b610862565b60405161019191906133c0565b60405180910390f35b6101b460048036038101906101af9190612e4d565b610c05565b005b6101be611082565b6040516101cb91906133e2565b60405180910390f35b6101ee60048036038101906101e99190612f10565b61108b565b005b61020a60048036038101906102059190612d7c565b611539565b005b61022660048036038101906102219190612d7c565b6119c9565b005b610242600480360381019061023d9190612d7c565b611efa565b6040516102549695949392919061329e565b60405180910390f35b61027760048036038101906102729190612e4d565b612176565b005b610281612339565b60405161028e91906133e2565b60405180910390f35b6102b160048036038101906102ac9190612de1565b612343565b005b6102cd60048036038101906102c89190612da5565b6124c2565b6040516102da919061325a565b60405180910390f35b6102fd60048036038101906102f89190612f39565b612510565b005b61030761290c565b604051610314919061331b565b60405180910390f35b61033760048036038101906103329190612da5565b6129d7565b604051610346939291906133fd565b60405180910390f35b6000600360003373ffffffffffffffffffffffffffffffffffffffff1673ffffffffffffffffffffffffffffffffffffffff16815260200190815260200160002080549050905090565b6060600360003373ffffffffffffffffffffffffffffffffffffffff1673ffffffffffffffffffffffffffffffffffffffff168152602001908152602001600020805480602002602001604051908101604052809291908181526020016000905b8282101561055a578382906000526020600020906003020160405180606001604052908160008201548152602001600182018054610437906136ae565b80601f0160208091040260200160405190810160405280929190818152602001828054610463906136ae565b80156104b05780601f10610485576101008083540402835291602001916104b0565b820191906000526020600020905b81548152906001019060200180831161049357829003601f168201915b505050505081526020016002820180546104c9906136ae565b80601f01602080910402602001604051908101604052809291908181526020018280546104f5906136ae565b80156105425780601f1061051757610100808354040283529160200191610542565b820191906000526020600020905b81548152906001019060200180831161052557829003601f168201915b505050505081525050815260200190600101906103fa565b50505050905090565b61056b612b2e565b600260003373ffffffffffffffffffffffffffffffffffffffff1673ffffffffffffffffffffffffffffffffffffffff1681526020019081526020016000206040518060c00160405290816000820160009054906101000a900473ffffffffffffffffffffffffffffffffffffffff1673ffffffffffffffffffffffffffffffffffffffff1673ffffffffffffffffffffffffffffffffffffffff16815260200160018201548152602001600282018054610625906136ae565b80601f0160208091040260200160405190810160405280929190818152602001828054610651906136ae565b801561069e5780601f106106735761010080835404028352916020019161069e565b820191906000526020600020905b81548152906001019060200180831161068157829003601f168201915b505050505081526020016003820180546106b7906136ae565b80601f01602080910402602001604051908101604052809291908181526020018280546106e3906136ae565b80156107305780601f1061070557610100808354040283529160200191610730565b820191906000526020600020905b81548152906001019060200180831161071357829003601f168201915b50505050508152602001600482018054610749906136ae565b80601f0160208091040260200160405190810160405280929190818152602001828054610775906136ae565b80156107c25780601f10610797576101008083540402835291602001916107c2565b820191906000526020600020905b8154815290600101906020018083116107a557829003601f168201915b505050505081526020016005820180546107db906136ae565b80601f0160208091040260200160405190810160405280929190818152602001828054610807906136ae565b80156108545780601f1061082957610100808354040283529160200191610854565b820191906000526020600020905b81548152906001019060200180831161083757829003601f168201915b505050505081525050905090565b61086a612b2e565b600073ffffffffffffffffffffffffffffffffffffffff16600260008473ffffffffffffffffffffffffffffffffffffffff1673ffffffffffffffffffffffffffffffffffffffff16815260200190815260200160002060000160009054906101000a900473ffffffffffffffffffffffffffffffffffffffff1673ffffffffffffffffffffffffffffffffffffffff16141561090657600080fd5b6000600260008473ffffffffffffffffffffffffffffffffffffffff1673ffffffffffffffffffffffffffffffffffffffff1681526020019081526020016000206040518060c00160405290816000820160009054906101000a900473ffffffffffffffffffffffffffffffffffffffff1673ffffffffffffffffffffffffffffffffffffffff1673ffffffffffffffffffffffffffffffffffffffff168152602001600182015481526020016002820180546109c2906136ae565b80601f01602080910402602001604051908101604052809291908181526020018280546109ee906136ae565b8015610a3b5780601f10610a1057610100808354040283529160200191610a3b565b820191906000526020600020905b815481529060010190602001808311610a1e57829003601f168201915b50505050508152602001600382018054610a54906136ae565b80601f0160208091040260200160405190810160405280929190818152602001828054610a80906136ae565b8015610acd5780601f10610aa257610100808354040283529160200191610acd565b820191906000526020600020905b815481529060010190602001808311610ab057829003601f168201915b50505050508152602001600482018054610ae6906136ae565b80601f0160208091040260200160405190810160405280929190818152602001828054610b12906136ae565b8015610b5f5780601f10610b3457610100808354040283529160200191610b5f565b820191906000526020600020905b815481529060010190602001808311610b4257829003601f168201915b50505050508152602001600582018054610b78906136ae565b80601f0160208091040260200160405190810160405280929190818152602001828054610ba4906136ae565b8015610bf15780601f10610bc657610100808354040283529160200191610bf1565b820191906000526020600020905b815481529060010190602001808311610bd457829003601f168201915b505050505081525050905080915050919050565b6000600260003373ffffffffffffffffffffffffffffffffffffffff1673ffffffffffffffffffffffffffffffffffffffff1681526020019081526020016000206040518060c00160405290816000820160009054906101000a900473ffffffffffffffffffffffffffffffffffffffff1673ffffffffffffffffffffffffffffffffffffffff1673ffffffffffffffffffffffffffffffffffffffff16815260200160018201548152602001600282018054610cc1906136ae565b80601f0160208091040260200160405190810160405280929190818152602001828054610ced906136ae565b8015610d3a5780601f10610d0f57610100808354040283529160200191610d3a565b820191906000526020600020905b815481529060010190602001808311610d1d57829003601f168201915b50505050508152602001600382018054610d53906136ae565b80601f0160208091040260200160405190810160405280929190818152602001828054610d7f906136ae565b8015610dcc5780601f10610da157610100808354040283529160200191610dcc565b820191906000526020600020905b815481529060010190602001808311610daf57829003601f168201915b50505050508152602001600482018054610de5906136ae565b80601f0160208091040260200160405190810160405280929190818152602001828054610e11906136ae565b8015610e5e5780601f10610e3357610100808354040283529160200191610e5e565b820191906000526020600020905b815481529060010190602001808311610e4157829003601f168201915b50505050508152602001600582018054610e77906136ae565b80601f0160208091040260200160405190810160405280929190818152602001828054610ea3906136ae565b8015610ef05780601f10610ec557610100808354040283529160200191610ef0565b820191906000526020600020905b815481529060010190602001808311610ed357829003601f168201915b5050505050815250509050848160400181905250838160600181905250828160800181905250818160a0018190525080600260003373ffffffffffffffffffffffffffffffffffffffff1673ffffffffffffffffffffffffffffffffffffffff16815260200190815260200160002060008201518160000160006101000a81548173ffffffffffffffffffffffffffffffffffffffff021916908373ffffffffffffffffffffffffffffffffffffffff160217905550602082015181600101556040820151816002019080519060200190610fcc929190612b7a565b506060820151816003019080519060200190610fe9929190612b7a565b506080820151816004019080519060200190611006929190612b7a565b5060a0820151816005019080519060200190611023929190612b7a565b509050503373ffffffffffffffffffffffffffffffffffffffff167fd5a43b2049b40ce6d1c3175b5e4a5084585cda50ef709abacb6ddfa2ccd2e09786868686604051611073949392919061335f565b60405180910390a25050505050565b60008054905090565b6000811161109857600080fd5b600360003373ffffffffffffffffffffffffffffffffffffffff1673ffffffffffffffffffffffffffffffffffffffff168152602001908152602001600020805490508111156110e757600080fd5b6000600190505b600360003373ffffffffffffffffffffffffffffffffffffffff1673ffffffffffffffffffffffffffffffffffffffff168152602001908152602001600020805490508110156115355781600360003373ffffffffffffffffffffffffffffffffffffffff1673ffffffffffffffffffffffffffffffffffffffff16815260200190815260200160002082815481106111b0577f4e487b7100000000000000000000000000000000000000000000000000000000600052603260045260246000fd5b906000526020600020906003020160000154141561152257600360003373ffffffffffffffffffffffffffffffffffffffff1673ffffffffffffffffffffffffffffffffffffffff168152602001908152602001600020818154811061123f577f4e487b7100000000000000000000000000000000000000000000000000000000600052603260045260246000fd5b90600052602060002090600302016000808201600090556001820160006112669190612c00565b6002820160006112769190612c00565b5050600360003373ffffffffffffffffffffffffffffffffffffffff1673ffffffffffffffffffffffffffffffffffffffff1681526020019081526020016000206001600360003373ffffffffffffffffffffffffffffffffffffffff1673ffffffffffffffffffffffffffffffffffffffff1681526020019081526020016000208054905061130691906135fc565b8154811061133d577f4e487b7100000000000000000000000000000000000000000000000000000000600052603260045260246000fd5b9060005260206000209060030201600360003373ffffffffffffffffffffffffffffffffffffffff1673ffffffffffffffffffffffffffffffffffffffff16815260200190815260200160002082815481106113c2577f4e487b7100000000000000000000000000000000000000000000000000000000600052603260045260246000fd5b90600052602060002090600302016000820154816000015560018201816001019080546113ee906136ae565b6113f9929190612c40565b50600282018160020190805461140e906136ae565b611419929190612c40565b50905050600360003373ffffffffffffffffffffffffffffffffffffffff1673ffffffffffffffffffffffffffffffffffffffff168152602001908152602001600020805480611492577f4e487b7100000000000000000000000000000000000000000000000000000000600052603160045260246000fd5b60019003818190600052602060002090600302016000808201600090556001820160006114bf9190612c00565b6002820160006114cf9190612c00565b505090553373ffffffffffffffffffffffffffffffffffffffff167fd6434a95f6905e04b83cdd9d4c31641a79891fa44503501ca072e9fa843406f88360405161151991906133e2565b60405180910390a25b808061152d90613711565b9150506110ee565b5050565b600073ffffffffffffffffffffffffffffffffffffffff16600260008373ffffffffffffffffffffffffffffffffffffffff1673ffffffffffffffffffffffffffffffffffffffff16815260200190815260200160002060000160009054906101000a900473ffffffffffffffffffffffffffffffffffffffff1673ffffffffffffffffffffffffffffffffffffffff1614156115d557600080fd5b60018060008282546115e791906135a6565b925050819055506000600260008373ffffffffffffffffffffffffffffffffffffffff1673ffffffffffffffffffffffffffffffffffffffff1681526020019081526020016000206040518060c00160405290816000820160009054906101000a900473ffffffffffffffffffffffffffffffffffffffff1673ffffffffffffffffffffffffffffffffffffffff1673ffffffffffffffffffffffffffffffffffffffff168152602001600182015481526020016002820180546116aa906136ae565b80601f01602080910402602001604051908101604052809291908181526020018280546116d6906136ae565b80156117235780601f106116f857610100808354040283529160200191611723565b820191906000526020600020905b81548152906001019060200180831161170657829003601f168201915b5050505050815260200160038201805461173c906136ae565b80601f0160208091040260200160405190810160405280929190818152602001828054611768906136ae565b80156117b55780601f1061178a576101008083540402835291602001916117b5565b820191906000526020600020905b81548152906001019060200180831161179857829003601f168201915b505050505081526020016004820180546117ce906136ae565b80601f01602080910402602001604051908101604052809291908181526020018280546117fa906136ae565b80156118475780601f1061181c57610100808354040283529160200191611847565b820191906000526020600020905b81548152906001019060200180831161182a57829003601f168201915b50505050508152602001600582018054611860906136ae565b80601f016020809104026020016040519081016040528092919081815260200182805461188c906136ae565b80156118d95780601f106118ae576101008083540402835291602001916118d9565b820191906000526020600020905b8154815290600101906020018083116118bc57829003601f168201915b5050505050815250509050600460003373ffffffffffffffffffffffffffffffffffffffff1673ffffffffffffffffffffffffffffffffffffffff16815260200190815260200160002081600001519080600181540180825580915050600190039060005260206000200160009091909190916101000a81548173ffffffffffffffffffffffffffffffffffffffff021916908373ffffffffffffffffffffffffffffffffffffffff1602179055507fdfbd93ccce7cce70f7d5aec1acabeb8cc91947b541fc4814bc1cb0032e72f4bf3382600001516040516119bd929190613275565b60405180910390a15050565b600073ffffffffffffffffffffffffffffffffffffffff16600260008373ffffffffffffffffffffffffffffffffffffffff1673ffffffffffffffffffffffffffffffffffffffff16815260200190815260200160002060000160009054906101000a900473ffffffffffffffffffffffffffffffffffffffff1673ffffffffffffffffffffffffffffffffffffffff161415611a6557600080fd5b60005b6001600460003373ffffffffffffffffffffffffffffffffffffffff1673ffffffffffffffffffffffffffffffffffffffff16815260200190815260200160002080549050611ab791906135fc565b811015611ef6578173ffffffffffffffffffffffffffffffffffffffff16600460003373ffffffffffffffffffffffffffffffffffffffff1673ffffffffffffffffffffffffffffffffffffffff1681526020019081526020016000208281548110611b4c577f4e487b7100000000000000000000000000000000000000000000000000000000600052603260045260246000fd5b9060005260206000200160009054906101000a900473ffffffffffffffffffffffffffffffffffffffff1673ffffffffffffffffffffffffffffffffffffffff161415611ee357600460003373ffffffffffffffffffffffffffffffffffffffff1673ffffffffffffffffffffffffffffffffffffffff1681526020019081526020016000208181548110611c0a577f4e487b7100000000000000000000000000000000000000000000000000000000600052603260045260246000fd5b9060005260206000200160006101000a81549073ffffffffffffffffffffffffffffffffffffffff0219169055600460003373ffffffffffffffffffffffffffffffffffffffff1673ffffffffffffffffffffffffffffffffffffffff1681526020019081526020016000206001600460003373ffffffffffffffffffffffffffffffffffffffff1673ffffffffffffffffffffffffffffffffffffffff16815260200190815260200160002080549050611cc591906135fc565b81548110611cfc577f4e487b7100000000000000000000000000000000000000000000000000000000600052603260045260246000fd5b9060005260206000200160009054906101000a900473ffffffffffffffffffffffffffffffffffffffff16600460003373ffffffffffffffffffffffffffffffffffffffff1673ffffffffffffffffffffffffffffffffffffffff1681526020019081526020016000208281548110611d9e577f4e487b7100000000000000000000000000000000000000000000000000000000600052603260045260246000fd5b9060005260206000200160006101000a81548173ffffffffffffffffffffffffffffffffffffffff021916908373ffffffffffffffffffffffffffffffffffffffff160217905550600460003373ffffffffffffffffffffffffffffffffffffffff1673ffffffffffffffffffffffffffffffffffffffff168152602001908152602001600020805480611e5b577f4e487b7100000000000000000000000000000000000000000000000000000000600052603160045260246000fd5b6001900381819060005260206000200160006101000a81549073ffffffffffffffffffffffffffffffffffffffff021916905590556001806000828254611ea291906135fc565b925050819055507f9dc408e59857bcd0b3dc14717fde2d817014879698316cb0866fa595215afb7c3383604051611eda929190613275565b60405180910390a15b8080611eee90613711565b915050611a68565b5050565b60026020528060005260406000206000915090508060000160009054906101000a900473ffffffffffffffffffffffffffffffffffffffff1690806001015490806002018054611f49906136ae565b80601f0160208091040260200160405190810160405280929190818152602001828054611f75906136ae565b8015611fc25780601f10611f9757610100808354040283529160200191611fc2565b820191906000526020600020905b815481529060010190602001808311611fa557829003601f168201915b505050505090806003018054611fd7906136ae565b80601f0160208091040260200160405190810160405280929190818152602001828054612003906136ae565b80156120505780601f1061202557610100808354040283529160200191612050565b820191906000526020600020905b81548152906001019060200180831161203357829003601f168201915b505050505090806004018054612065906136ae565b80601f0160208091040260200160405190810160405280929190818152602001828054612091906136ae565b80156120de5780601f106120b3576101008083540402835291602001916120de565b820191906000526020600020905b8154815290600101906020018083116120c157829003601f168201915b5050505050908060050180546120f3906136ae565b80601f016020809104026020016040519081016040528092919081815260200182805461211f906136ae565b801561216c5780601f106121415761010080835404028352916020019161216c565b820191906000526020600020905b81548152906001019060200180831161214f57829003601f168201915b5050505050905086565b600160008082825461218891906135a6565b925050819055506040518060c001604052803373ffffffffffffffffffffffffffffffffffffffff168152602001600054815260200185815260200184815260200183815260200182815250600260003373ffffffffffffffffffffffffffffffffffffffff1673ffffffffffffffffffffffffffffffffffffffff16815260200190815260200160002060008201518160000160006101000a81548173ffffffffffffffffffffffffffffffffffffffff021916908373ffffffffffffffffffffffffffffffffffffffff160217905550602082015181600101556040820151816002019080519060200190612280929190612b7a565b50606082015181600301908051906020019061229d929190612b7a565b5060808201518160040190805190602001906122ba929190612b7a565b5060a08201518160050190805190602001906122d7929190612b7a565b509050503373ffffffffffffffffffffffffffffffffffffffff167f57fe0d750c279e36bd8fdbc0c08b58b5d0dccd55216ff76f0220ffae60acfcd46000548686868660405161232b959493929190613442565b60405180910390a250505050565b6000600154905090565b6000600360003373ffffffffffffffffffffffffffffffffffffffff1673ffffffffffffffffffffffffffffffffffffffff168152602001908152602001600020805490509050600360003373ffffffffffffffffffffffffffffffffffffffff1673ffffffffffffffffffffffffffffffffffffffff16815260200190815260200160002060405180606001604052806001846123e191906135a6565b815260200185815260200184815250908060018154018082558091505060019003906000526020600020906003020160009091909190915060008201518160000155602082015181600101908051906020019061243f929190612b7a565b50604082015181600201908051906020019061245c929190612b7a565b5050503373ffffffffffffffffffffffffffffffffffffffff167fd62d3de3a7be21ba4f0c9487c9241b2d56fd32f46008dbb6366cb08b41b7fb576001836124a491906135a6565b85856040516124b5939291906133fd565b60405180910390a2505050565b600460205281600052604060002081815481106124de57600080fd5b906000526020600020016000915091509054906101000a900473ffffffffffffffffffffffffffffffffffffffff1681565b6000831161251d57600080fd5b6000600190505b600360003373ffffffffffffffffffffffffffffffffffffffff1673ffffffffffffffffffffffffffffffffffffffff168152602001908152602001600020805490508110156129065783600360003373ffffffffffffffffffffffffffffffffffffffff1673ffffffffffffffffffffffffffffffffffffffff16815260200190815260200160002082815481106125e6577f4e487b7100000000000000000000000000000000000000000000000000000000600052603260045260246000fd5b90600052602060002090600302016000015414156128f3576000600360003373ffffffffffffffffffffffffffffffffffffffff1673ffffffffffffffffffffffffffffffffffffffff1681526020019081526020016000208281548110612677577f4e487b7100000000000000000000000000000000000000000000000000000000600052603260045260246000fd5b9060005260206000209060030201604051806060016040529081600082015481526020016001820180546126aa906136ae565b80601f01602080910402602001604051908101604052809291908181526020018280546126d6906136ae565b80156127235780601f106126f857610100808354040283529160200191612723565b820191906000526020600020905b81548152906001019060200180831161270657829003601f168201915b5050505050815260200160028201805461273c906136ae565b80601f0160208091040260200160405190810160405280929190818152602001828054612768906136ae565b80156127b55780601f1061278a576101008083540402835291602001916127b5565b820191906000526020600020905b81548152906001019060200180831161279857829003601f168201915b505050505081525050905083816020018190525082816040018190525080600360003373ffffffffffffffffffffffffffffffffffffffff1673ffffffffffffffffffffffffffffffffffffffff168152602001908152602001600020838154811061284a577f4e487b7100000000000000000000000000000000000000000000000000000000600052603260045260246000fd5b906000526020600020906003020160008201518160000155602082015181600101908051906020019061287e929190612b7a565b50604082015181600201908051906020019061289b929190612b7a565b509050503373ffffffffffffffffffffffffffffffffffffffff167fd4e149c124d493134d7a0ce3081eda392d02ea193c781e7bf2c9a31d6eea14c78686866040516128e9939291906133fd565b60405180910390a2505b80806128fe90613711565b915050612524565b50505050565b6060600460003373ffffffffffffffffffffffffffffffffffffffff1673ffffffffffffffffffffffffffffffffffffffff1681526020019081526020016000208054806020026020016040519081016040528092919081815260200182805480156129cd57602002820191906000526020600020905b8160009054906101000a900473ffffffffffffffffffffffffffffffffffffffff1673ffffffffffffffffffffffffffffffffffffffff1681526020019060010190808311612983575b5050505050905090565b600360205281600052604060002081815481106129f357600080fd5b906000526020600020906003020160009150915050806000015490806001018054612a1d906136ae565b80601f0160208091040260200160405190810160405280929190818152602001828054612a49906136ae565b8015612a965780601f10612a6b57610100808354040283529160200191612a96565b820191906000526020600020905b815481529060010190602001808311612a7957829003601f168201915b505050505090806002018054612aab906136ae565b80601f0160208091040260200160405190810160405280929190818152602001828054612ad7906136ae565b8015612b245780601f10612af957610100808354040283529160200191612b24565b820191906000526020600020905b815481529060010190602001808311612b0757829003601f168201915b5050505050905083565b6040518060c00160405280600073ffffffffffffffffffffffffffffffffffffffff16815260200160008152602001606081526020016060815260200160608152602001606081525090565b828054612b86906136ae565b90600052602060002090601f016020900481019282612ba85760008555612bef565b82601f10612bc157805160ff1916838001178555612bef565b82800160010185558215612bef579182015b82811115612bee578251825591602001919060010190612bd3565b5b509050612bfc9190612ccd565b5090565b508054612c0c906136ae565b6000825580601f10612c1e5750612c3d565b601f016020900490600052602060002090810190612c3c9190612ccd565b5b50565b828054612c4c906136ae565b90600052602060002090601f016020900481019282612c6e5760008555612cbc565b82601f10612c7f5780548555612cbc565b82800160010185558215612cbc57600052602060002091601f016020900482015b82811115612cbb578254825591600101919060010190612ca0565b5b509050612cc99190612ccd565b5090565b5b80821115612ce6576000816000905550600101612cce565b5090565b6000612cfd612cf8846134d6565b6134b1565b905082815260208101848484011115612d1557600080fd5b612d2084828561366c565b509392505050565b600081359050612d37816137f8565b92915050565b600082601f830112612d4e57600080fd5b8135612d5e848260208601612cea565b91505092915050565b600081359050612d768161380f565b92915050565b600060208284031215612d8e57600080fd5b6000612d9c84828501612d28565b91505092915050565b60008060408385031215612db857600080fd5b6000612dc685828601612d28565b9250506020612dd785828601612d67565b9150509250929050565b60008060408385031215612df457600080fd5b600083013567ffffffffffffffff811115612e0e57600080fd5b612e1a85828601612d3d565b925050602083013567ffffffffffffffff811115612e3757600080fd5b612e4385828601612d3d565b9150509250929050565b60008060008060808587031215612e6357600080fd5b600085013567ffffffffffffffff811115612e7d57600080fd5b612e8987828801612d3d565b945050602085013567ffffffffffffffff811115612ea657600080fd5b612eb287828801612d3d565b935050604085013567ffffffffffffffff811115612ecf57600080fd5b612edb87828801612d3d565b925050606085013567ffffffffffffffff811115612ef857600080fd5b612f0487828801612d3d565b91505092959194509250565b600060208284031215612f2257600080fd5b6000612f3084828501612d67565b91505092915050565b600080600060608486031215612f4e57600080fd5b6000612f5c86828701612d67565b935050602084013567ffffffffffffffff811115612f7957600080fd5b612f8586828701612d3d565b925050604084013567ffffffffffffffff811115612fa257600080fd5b612fae86828701612d3d565b9150509250925092565b6000612fc48383612fe4565b60208301905092915050565b6000612fdc83836131e5565b905092915050565b612fed81613630565b82525050565b612ffc81613630565b82525050565b600061300d82613527565b6130178185613562565b935061302283613507565b8060005b8381101561305357815161303a8882612fb8565b975061304583613548565b925050600181019050613026565b5085935050505092915050565b600061306b82613532565b6130758185613573565b93508360208202850161308785613517565b8060005b858110156130c357848403895281516130a48582612fd0565b94506130af83613555565b925060208a0199505060018101905061308b565b50829750879550505050505092915050565b60006130e08261353d565b6130ea8185613584565b93506130fa81856020860161367b565b613103816137e7565b840191505092915050565b60006131198261353d565b6131238185613595565b935061313381856020860161367b565b61313c816137e7565b840191505092915050565b600060c08301600083015161315f6000860182612fe4565b506020830151613172602086018261323c565b506040830151848203604086015261318a82826130d5565b915050606083015184820360608601526131a482826130d5565b915050608083015184820360808601526131be82826130d5565b91505060a083015184820360a08601526131d882826130d5565b9150508091505092915050565b60006060830160008301516131fd600086018261323c565b506020830151848203602086015261321582826130d5565b9150506040830151848203604086015261322f82826130d5565b9150508091505092915050565b61324581613662565b82525050565b61325481613662565b82525050565b600060208201905061326f6000830184612ff3565b92915050565b600060408201905061328a6000830185612ff3565b6132976020830184612ff3565b9392505050565b600060c0820190506132b36000830189612ff3565b6132c0602083018861324b565b81810360408301526132d2818761310e565b905081810360608301526132e6818661310e565b905081810360808301526132fa818561310e565b905081810360a083015261330e818461310e565b9050979650505050505050565b600060208201905081810360008301526133358184613002565b905092915050565b600060208201905081810360008301526133578184613060565b905092915050565b60006080820190508181036000830152613379818761310e565b9050818103602083015261338d818661310e565b905081810360408301526133a1818561310e565b905081810360608301526133b5818461310e565b905095945050505050565b600060208201905081810360008301526133da8184613147565b905092915050565b60006020820190506133f7600083018461324b565b92915050565b6000606082019050613412600083018661324b565b8181036020830152613424818561310e565b90508181036040830152613438818461310e565b9050949350505050565b600060a082019050613457600083018861324b565b8181036020830152613469818761310e565b9050818103604083015261347d818661310e565b90508181036060830152613491818561310e565b905081810360808301526134a5818461310e565b90509695505050505050565b60006134bb6134cc565b90506134c782826136e0565b919050565b6000604051905090565b600067ffffffffffffffff8211156134f1576134f06137b8565b5b6134fa826137e7565b9050602081019050919050565b6000819050602082019050919050565b6000819050602082019050919050565b600081519050919050565b600081519050919050565b600081519050919050565b6000602082019050919050565b6000602082019050919050565b600082825260208201905092915050565b600082825260208201905092915050565b600082825260208201905092915050565b600082825260208201905092915050565b60006135b182613662565b91506135bc83613662565b9250827fffffffffffffffffffffffffffffffffffffffffffffffffffffffffffffffff038211156135f1576135f061375a565b5b828201905092915050565b600061360782613662565b915061361283613662565b9250828210156136255761362461375a565b5b828203905092915050565b600061363b82613642565b9050919050565b600073ffffffffffffffffffffffffffffffffffffffff82169050919050565b6000819050919050565b82818337600083830152505050565b60005b8381101561369957808201518184015260208101905061367e565b838111156136a8576000848401525b50505050565b600060028204905060018216806136c657607f821691505b602082108114156136da576136d9613789565b5b50919050565b6136e9826137e7565b810181811067ffffffffffffffff82111715613708576137076137b8565b5b80604052505050565b600061371c82613662565b91507fffffffffffffffffffffffffffffffffffffffffffffffffffffffffffffffff82141561374f5761374e61375a565b5b600182019050919050565b7f4e487b7100000000000000000000000000000000000000000000000000000000600052601160045260246000fd5b7f4e487b7100000000000000000000000000000000000000000000000000000000600052602260045260246000fd5b7f4e487b7100000000000000000000000000000000000000000000000000000000600052604160045260246000fd5b6000601f19601f8301169050919050565b61380181613630565b811461380c57600080fd5b50565b61381881613662565b811461382357600080fd5b5056fea2646970667358221220618566ac53a6621fc2706a503382b29ef3ed4e404203271a272e5c4ae8f4acb264736f6c63430008040033",
  "linkReferences": {},
  "deployedLinkReferences": {}
}