{
  "_format": "hh-sol-artifact-1",
  "contractName": "MetaCard",
  "sourceName": "contracts/MetaCard.sol",
  "abi": [
    {
      "anonymous": false,
      "inputs": [
        {
          "indexed": false,
          "internalType": "address",
          "name": "owner",
          "type": "address"
        }
      ],
      "name": "AddContact",
      "type": "event"
    },
    {
      "anonymous": false,
      "inputs": [
        {
          "indexed": false,
          "internalType": "uint256",
          "name": "id",
          "type": "uint256"
        },
        {
          "indexed": false,
          "internalType": "string",
          "name": "name",
          "type": "string"
        },
        {
          "indexed": false,
          "internalType": "string",
          "name": "link",
          "type": "string"
        }
      ],
      "name": "AddSocialLink",
      "type": "event"
    },
    {
      "anonymous": false,
      "inputs": [
        {
          "indexed": false,
          "internalType": "uint256",
          "name": "id",
          "type": "uint256"
        },
        {
          "indexed": false,
          "internalType": "address",
          "name": "owner",
          "type": "address"
        },
        {
          "indexed": false,
          "internalType": "string",
          "name": "fullName",
          "type": "string"
        },
        {
          "indexed": false,
          "internalType": "string",
          "name": "title",
          "type": "string"
        },
        {
          "indexed": false,
          "internalType": "string",
          "name": "phoneNumber",
          "type": "string"
        }
      ],
      "name": "CreateBusinessCard",
      "type": "event"
    },
    {
      "anonymous": false,
      "inputs": [
        {
          "indexed": false,
          "internalType": "address",
          "name": "owner",
          "type": "address"
        }
      ],
      "name": "RemoveContact",
      "type": "event"
    },
    {
      "anonymous": false,
      "inputs": [
        {
          "indexed": false,
          "internalType": "uint256",
          "name": "id",
          "type": "uint256"
        }
      ],
      "name": "RemoveSocialLink",
      "type": "event"
    },
    {
      "anonymous": false,
      "inputs": [
        {
          "indexed": false,
          "internalType": "address",
          "name": "owner",
          "type": "address"
        },
        {
          "indexed": false,
          "internalType": "string",
          "name": "fullName",
          "type": "string"
        },
        {
          "indexed": false,
          "internalType": "string",
          "name": "title",
          "type": "string"
        },
        {
          "indexed": false,
          "internalType": "string",
          "name": "phoneNumber",
          "type": "string"
        }
      ],
      "name": "UpdateBusinessCard",
      "type": "event"
    },
    {
      "anonymous": false,
      "inputs": [
        {
          "indexed": false,
          "internalType": "uint256",
          "name": "id",
          "type": "uint256"
        },
        {
          "indexed": false,
          "internalType": "string",
          "name": "name",
          "type": "string"
        },
        {
          "indexed": false,
          "internalType": "string",
          "name": "link",
          "type": "string"
        }
      ],
      "name": "UpdateSocialLink",
      "type": "event"
    },
    {
      "inputs": [
        {
          "internalType": "address",
          "name": "_contact",
          "type": "address"
        }
      ],
      "name": "addContact",
      "outputs": [],
      "stateMutability": "nonpayable",
      "type": "function"
    },
    {
      "inputs": [
        {
          "internalType": "string",
          "name": "_name",
          "type": "string"
        },
        {
          "internalType": "string",
          "name": "_link",
          "type": "string"
        }
      ],
      "name": "addSocialLink",
      "outputs": [],
      "stateMutability": "nonpayable",
      "type": "function"
    },
    {
      "inputs": [
        {
          "internalType": "address",
          "name": "",
          "type": "address"
        }
      ],
      "name": "allBusinessCards",
      "outputs": [
        {
          "internalType": "uint256",
          "name": "id",
          "type": "uint256"
        },
        {
          "internalType": "address",
          "name": "owner",
          "type": "address"
        },
        {
          "internalType": "string",
          "name": "fullName",
          "type": "string"
        },
        {
          "internalType": "string",
          "name": "title",
          "type": "string"
        },
        {
          "internalType": "string",
          "name": "phoneNumber",
          "type": "string"
        }
      ],
      "stateMutability": "view",
      "type": "function"
    },
    {
      "inputs": [],
      "name": "businessCard",
      "outputs": [
        {
          "internalType": "uint256",
          "name": "id",
          "type": "uint256"
        },
        {
          "internalType": "address",
          "name": "owner",
          "type": "address"
        },
        {
          "internalType": "string",
          "name": "fullName",
          "type": "string"
        },
        {
          "internalType": "string",
          "name": "title",
          "type": "string"
        },
        {
          "internalType": "string",
          "name": "phoneNumber",
          "type": "string"
        }
      ],
      "stateMutability": "view",
      "type": "function"
    },
    {
      "inputs": [
        {
          "internalType": "uint256",
          "name": "",
          "type": "uint256"
        }
      ],
      "name": "contacts",
      "outputs": [
        {
          "internalType": "address",
          "name": "",
          "type": "address"
        }
      ],
      "stateMutability": "view",
      "type": "function"
    },
    {
      "inputs": [
        {
          "internalType": "string",
          "name": "_fullName",
          "type": "string"
        },
        {
          "internalType": "string",
          "name": "_title",
          "type": "string"
        },
        {
          "internalType": "string",
          "name": "_phoneNumber",
          "type": "string"
        }
      ],
      "name": "createBusinessCard",
      "outputs": [],
      "stateMutability": "nonpayable",
      "type": "function"
    },
    {
      "inputs": [],
      "name": "getAllContacts",
      "outputs": [
        {
          "internalType": "address[]",
          "name": "",
          "type": "address[]"
        }
      ],
      "stateMutability": "view",
      "type": "function"
    },
    {
      "inputs": [],
      "name": "getBusinessCard",
      "outputs": [
        {
          "components": [
            {
              "internalType": "uint256",
              "name": "id",
              "type": "uint256"
            },
            {
              "internalType": "address",
              "name": "owner",
              "type": "address"
            },
            {
              "internalType": "string",
              "name": "fullName",
              "type": "string"
            },
            {
              "internalType": "string",
              "name": "title",
              "type": "string"
            },
            {
              "internalType": "string",
              "name": "phoneNumber",
              "type": "string"
            }
          ],
          "internalType": "struct MetaCard.BusinessCard",
          "name": "",
          "type": "tuple"
        }
      ],
      "stateMutability": "view",
      "type": "function"
    },
    {
      "inputs": [
        {
          "internalType": "address",
          "name": "_address",
          "type": "address"
        }
      ],
      "name": "getBusinessCardByAddress",
      "outputs": [
        {
          "components": [
            {
              "internalType": "uint256",
              "name": "id",
              "type": "uint256"
            },
            {
              "internalType": "address",
              "name": "owner",
              "type": "address"
            },
            {
              "internalType": "string",
              "name": "fullName",
              "type": "string"
            },
            {
              "internalType": "string",
              "name": "title",
              "type": "string"
            },
            {
              "internalType": "string",
              "name": "phoneNumber",
              "type": "string"
            }
          ],
          "internalType": "struct MetaCard.BusinessCard",
          "name": "",
          "type": "tuple"
        }
      ],
      "stateMutability": "view",
      "type": "function"
    },
    {
      "inputs": [],
      "name": "getBusinessCardsCount",
      "outputs": [
        {
          "internalType": "uint256",
          "name": "",
          "type": "uint256"
        }
      ],
      "stateMutability": "view",
      "type": "function"
    },
    {
      "inputs": [],
      "name": "getContactsCount",
      "outputs": [
        {
          "internalType": "uint256",
          "name": "",
          "type": "uint256"
        }
      ],
      "stateMutability": "view",
      "type": "function"
    },
    {
      "inputs": [],
      "name": "getSocialLinks",
      "outputs": [
        {
          "components": [
            {
              "internalType": "uint256",
              "name": "id",
              "type": "uint256"
            },
            {
              "internalType": "string",
              "name": "name",
              "type": "string"
            },
            {
              "internalType": "string",
              "name": "link",
              "type": "string"
            }
          ],
          "internalType": "struct MetaCard.SocialLink[]",
          "name": "",
          "type": "tuple[]"
        }
      ],
      "stateMutability": "view",
      "type": "function"
    },
    {
      "inputs": [],
      "name": "getSocialLinksCount",
      "outputs": [
        {
          "internalType": "uint256",
          "name": "",
          "type": "uint256"
        }
      ],
      "stateMutability": "view",
      "type": "function"
    },
    {
      "inputs": [
        {
          "internalType": "address",
          "name": "_contact",
          "type": "address"
        }
      ],
      "name": "removeContact",
      "outputs": [],
      "stateMutability": "nonpayable",
      "type": "function"
    },
    {
      "inputs": [
        {
          "internalType": "uint256",
          "name": "_id",
          "type": "uint256"
        }
      ],
      "name": "removeSocialLink",
      "outputs": [],
      "stateMutability": "nonpayable",
      "type": "function"
    },
    {
      "inputs": [
        {
          "internalType": "uint256",
          "name": "",
          "type": "uint256"
        }
      ],
      "name": "socialLinks",
      "outputs": [
        {
          "internalType": "uint256",
          "name": "id",
          "type": "uint256"
        },
        {
          "internalType": "string",
          "name": "name",
          "type": "string"
        },
        {
          "internalType": "string",
          "name": "link",
          "type": "string"
        }
      ],
      "stateMutability": "view",
      "type": "function"
    },
    {
      "inputs": [
        {
          "internalType": "string",
          "name": "_fullName",
          "type": "string"
        },
        {
          "internalType": "string",
          "name": "_title",
          "type": "string"
        },
        {
          "internalType": "string",
          "name": "_phoneNumber",
          "type": "string"
        }
      ],
      "name": "updateBusinessCard",
      "outputs": [],
      "stateMutability": "nonpayable",
      "type": "function"
    },
    {
      "inputs": [
        {
          "internalType": "uint256",
          "name": "_id",
          "type": "uint256"
        },
        {
          "internalType": "string",
          "name": "_name",
          "type": "string"
        },
        {
          "internalType": "string",
          "name": "_link",
          "type": "string"
        }
      ],
      "name": "updateSocialLink",
      "outputs": [],
      "stateMutability": "nonpayable",
      "type": "function"
    }
  ],
  "bytecode": "0x608060405234801561001057600080fd5b506130b2806100206000396000f3fe608060405234801561001057600080fd5b50600436106101165760003560e01c8063b1a81225116100a2578063d9d3fa6411610071578063d9d3fa64146102c3578063e08a2554146102df578063e0f478cb146102fb578063ef1d6ddd1461032b578063f20689311461034957610116565b8063b1a8122514610233578063b838f0801461024f578063d0e5cb2514610283578063d2b8ea89146102a157610116565b806379600b33116100e957806379600b33146101a55780638717e8bf146101c35780639dc623bf146101df578063a414b379146101fb578063a6a660721461021757610116565b806302a326b01461011b5780630a8f41b4146101395780630c4257fa146101575780632d5f20b314610175575b600080fd5b61012361037b565b6040516101309190612c3f565b60405180910390f35b610141610385565b60405161014e9190612bfb565b60405180910390f35b61015f610512565b60405161016c9190612c1d565b60405180910390f35b61018f600480360381019061018a9190612708565b610742565b60405161019c9190612c1d565b60405180910390f35b6101ad610a53565b6040516101ba9190612c3f565b60405180910390f35b6101dd60048036038101906101d8919061279d565b610a5c565b005b6101f960048036038101906101f49190612834565b610e7a565b005b61021560048036038101906102109190612708565b61113d565b005b610231600480360381019061022c9190612708565b6114fc565b005b61024d6004803603810190610248919061279d565b611880565b005b61026960048036038101906102649190612708565b611af4565b60405161027a959493929190612c5a565b60405180910390f35b61028b611ce2565b6040516102989190612c3f565b60405180910390f35b6102a9611cec565b6040516102ba959493929190612c5a565b60405180910390f35b6102dd60048036038101906102d89190612731565b611ec8565b005b6102f960048036038101906102f4919061285d565b611fb1565b005b61031560048036038101906103109190612834565b6122aa565b6040516103229190612b64565b60405180910390f35b6103336122e9565b6040516103409190612bd9565b60405180910390f35b610363600480360381019061035e9190612834565b612377565b60405161037293929190612cc2565b60405180910390f35b6000600254905090565b60606008805480602002602001604051908101604052809291908181526020016000905b828210156105095783829060005260206000209060030201604051806060016040529081600082015481526020016001820180546103e690612f04565b80601f016020809104026020016040519081016040528092919081815260200182805461041290612f04565b801561045f5780601f106104345761010080835404028352916020019161045f565b820191906000526020600020905b81548152906001019060200180831161044257829003601f168201915b5050505050815260200160028201805461047890612f04565b80601f01602080910402602001604051908101604052809291908181526020018280546104a490612f04565b80156104f15780601f106104c6576101008083540402835291602001916104f1565b820191906000526020600020905b8154815290600101906020018083116104d457829003601f168201915b505050505081525050815260200190600101906103a9565b50505050905090565b61051a6124c1565b60036040518060a0016040529081600082015481526020016001820160009054906101000a900473ffffffffffffffffffffffffffffffffffffffff1673ffffffffffffffffffffffffffffffffffffffff1673ffffffffffffffffffffffffffffffffffffffff16815260200160028201805461059790612f04565b80601f01602080910402602001604051908101604052809291908181526020018280546105c390612f04565b80156106105780601f106105e557610100808354040283529160200191610610565b820191906000526020600020905b8154815290600101906020018083116105f357829003601f168201915b5050505050815260200160038201805461062990612f04565b80601f016020809104026020016040519081016040528092919081815260200182805461065590612f04565b80156106a25780601f10610677576101008083540402835291602001916106a2565b820191906000526020600020905b81548152906001019060200180831161068557829003601f168201915b505050505081526020016004820180546106bb90612f04565b80601f01602080910402602001604051908101604052809291908181526020018280546106e790612f04565b80156107345780601f1061070957610100808354040283529160200191610734565b820191906000526020600020905b81548152906001019060200180831161071757829003601f168201915b505050505081525050905090565b61074a6124c1565b600073ffffffffffffffffffffffffffffffffffffffff16600a60008473ffffffffffffffffffffffffffffffffffffffff1673ffffffffffffffffffffffffffffffffffffffff16815260200190815260200160002060010160009054906101000a900473ffffffffffffffffffffffffffffffffffffffff1673ffffffffffffffffffffffffffffffffffffffff1614156107e657600080fd5b6000600a60008473ffffffffffffffffffffffffffffffffffffffff1673ffffffffffffffffffffffffffffffffffffffff1681526020019081526020016000206040518060a0016040529081600082015481526020016001820160009054906101000a900473ffffffffffffffffffffffffffffffffffffffff1673ffffffffffffffffffffffffffffffffffffffff1673ffffffffffffffffffffffffffffffffffffffff1681526020016002820180546108a290612f04565b80601f01602080910402602001604051908101604052809291908181526020018280546108ce90612f04565b801561091b5780601f106108f05761010080835404028352916020019161091b565b820191906000526020600020905b8154815290600101906020018083116108fe57829003601f168201915b5050505050815260200160038201805461093490612f04565b80601f016020809104026020016040519081016040528092919081815260200182805461096090612f04565b80156109ad5780601f10610982576101008083540402835291602001916109ad565b820191906000526020600020905b81548152906001019060200180831161099057829003601f168201915b505050505081526020016004820180546109c690612f04565b80601f01602080910402602001604051908101604052809291908181526020018280546109f290612f04565b8015610a3f5780601f10610a1457610100808354040283529160200191610a3f565b820191906000526020600020905b815481529060010190602001808311610a2257829003601f168201915b505050505081525050905080915050919050565b60008054905090565b600060036040518060a0016040529081600082015481526020016001820160009054906101000a900473ffffffffffffffffffffffffffffffffffffffff1673ffffffffffffffffffffffffffffffffffffffff1673ffffffffffffffffffffffffffffffffffffffff168152602001600282018054610adb90612f04565b80601f0160208091040260200160405190810160405280929190818152602001828054610b0790612f04565b8015610b545780601f10610b2957610100808354040283529160200191610b54565b820191906000526020600020905b815481529060010190602001808311610b3757829003601f168201915b50505050508152602001600382018054610b6d90612f04565b80601f0160208091040260200160405190810160405280929190818152602001828054610b9990612f04565b8015610be65780601f10610bbb57610100808354040283529160200191610be6565b820191906000526020600020905b815481529060010190602001808311610bc957829003601f168201915b50505050508152602001600482018054610bff90612f04565b80601f0160208091040260200160405190810160405280929190818152602001828054610c2b90612f04565b8015610c785780601f10610c4d57610100808354040283529160200191610c78565b820191906000526020600020905b815481529060010190602001808311610c5b57829003601f168201915b50505050508152505090508381604001819052508281606001819052508181608001819052508060036000820151816000015560208201518160010160006101000a81548173ffffffffffffffffffffffffffffffffffffffff021916908373ffffffffffffffffffffffffffffffffffffffff1602179055506040820151816002019080519060200190610d0e929190612506565b506060820151816003019080519060200190610d2b929190612506565b506080820151816004019080519060200190610d48929190612506565b5090505080600a60003373ffffffffffffffffffffffffffffffffffffffff1673ffffffffffffffffffffffffffffffffffffffff1681526020019081526020016000206000820151816000015560208201518160010160006101000a81548173ffffffffffffffffffffffffffffffffffffffff021916908373ffffffffffffffffffffffffffffffffffffffff1602179055506040820151816002019080519060200190610df9929190612506565b506060820151816003019080519060200190610e16929190612506565b506080820151816004019080519060200190610e33929190612506565b509050507f9b311994c82df73f5f3b11cb762c881ddd2da8a850a4bbf8bb50b1a59ad72d3033858585604051610e6c9493929190612b7f565b60405180910390a150505050565b6008805490508110610e8b57600080fd5b60005b6001600880549050610ea09190612e52565b811015611139578160088281548110610ee2577f4e487b7100000000000000000000000000000000000000000000000000000000600052603260045260246000fd5b90600052602060002090600302016000015414156111265760088181548110610f34577f4e487b7100000000000000000000000000000000000000000000000000000000600052603260045260246000fd5b9060005260206000209060030201600080820160009055600182016000610f5b919061258c565b600282016000610f6b919061258c565b505060086001600880549050610f819190612e52565b81548110610fb8577f4e487b7100000000000000000000000000000000000000000000000000000000600052603260045260246000fd5b906000526020600020906003020160088281548110611000577f4e487b7100000000000000000000000000000000000000000000000000000000600052603260045260246000fd5b906000526020600020906003020160008201548160000155600182018160010190805461102c90612f04565b6110379291906125cc565b50600282018160020190805461104c90612f04565b6110579291906125cc565b509050506008805480611093577f4e487b7100000000000000000000000000000000000000000000000000000000600052603160045260246000fd5b60019003818190600052602060002090600302016000808201600090556001820160006110c0919061258c565b6002820160006110d0919061258c565b505090556001600260008282546110e79190612e52565b925050819055507fe1bf2733929e16f6a2d2ffdea42caddc110fa8436175c16538f4676f44c4e6da8260405161111d9190612c3f565b60405180910390a15b808061113190612f67565b915050610e8e565b5050565b600073ffffffffffffffffffffffffffffffffffffffff16600a60008373ffffffffffffffffffffffffffffffffffffffff1673ffffffffffffffffffffffffffffffffffffffff16815260200190815260200160002060010160009054906101000a900473ffffffffffffffffffffffffffffffffffffffff1673ffffffffffffffffffffffffffffffffffffffff1614156111d957600080fd5b60018060008282546111eb9190612dfc565b925050819055506000600a60008373ffffffffffffffffffffffffffffffffffffffff1673ffffffffffffffffffffffffffffffffffffffff1681526020019081526020016000206040518060a0016040529081600082015481526020016001820160009054906101000a900473ffffffffffffffffffffffffffffffffffffffff1673ffffffffffffffffffffffffffffffffffffffff1673ffffffffffffffffffffffffffffffffffffffff1681526020016002820180546112ae90612f04565b80601f01602080910402602001604051908101604052809291908181526020018280546112da90612f04565b80156113275780601f106112fc57610100808354040283529160200191611327565b820191906000526020600020905b81548152906001019060200180831161130a57829003601f168201915b5050505050815260200160038201805461134090612f04565b80601f016020809104026020016040519081016040528092919081815260200182805461136c90612f04565b80156113b95780601f1061138e576101008083540402835291602001916113b9565b820191906000526020600020905b81548152906001019060200180831161139c57829003601f168201915b505050505081526020016004820180546113d290612f04565b80601f01602080910402602001604051908101604052809291908181526020018280546113fe90612f04565b801561144b5780601f106114205761010080835404028352916020019161144b565b820191906000526020600020905b81548152906001019060200180831161142e57829003601f168201915b5050505050815250509050600981602001519080600181540180825580915050600190039060005260206000200160009091909190916101000a81548173ffffffffffffffffffffffffffffffffffffffff021916908373ffffffffffffffffffffffffffffffffffffffff1602179055507f844a3c3da9e7dc9787c1e891c44af6121993042d900298abe0370d2d1d638f6d81602001516040516114f09190612b64565b60405180910390a15050565b600073ffffffffffffffffffffffffffffffffffffffff16600a60008373ffffffffffffffffffffffffffffffffffffffff1673ffffffffffffffffffffffffffffffffffffffff16815260200190815260200160002060010160009054906101000a900473ffffffffffffffffffffffffffffffffffffffff1673ffffffffffffffffffffffffffffffffffffffff16141561159857600080fd5b60005b60016009805490506115ad9190612e52565b81101561187c578173ffffffffffffffffffffffffffffffffffffffff1660098281548110611605577f4e487b7100000000000000000000000000000000000000000000000000000000600052603260045260246000fd5b9060005260206000200160009054906101000a900473ffffffffffffffffffffffffffffffffffffffff1673ffffffffffffffffffffffffffffffffffffffff1614156118695760098181548110611686577f4e487b7100000000000000000000000000000000000000000000000000000000600052603260045260246000fd5b9060005260206000200160006101000a81549073ffffffffffffffffffffffffffffffffffffffff0219169055600960016009805490506116c79190612e52565b815481106116fe577f4e487b7100000000000000000000000000000000000000000000000000000000600052603260045260246000fd5b9060005260206000200160009054906101000a900473ffffffffffffffffffffffffffffffffffffffff1660098281548110611763577f4e487b7100000000000000000000000000000000000000000000000000000000600052603260045260246000fd5b9060005260206000200160006101000a81548173ffffffffffffffffffffffffffffffffffffffff021916908373ffffffffffffffffffffffffffffffffffffffff16021790555060098054806117e3577f4e487b7100000000000000000000000000000000000000000000000000000000600052603160045260246000fd5b6001900381819060005260206000200160006101000a81549073ffffffffffffffffffffffffffffffffffffffff02191690559055600180600082825461182a9190612e52565b925050819055507f85cd38081d657ca98d623787ab4f48439ca5831bfe392ff7005c6de37e9b1994826040516118609190612b64565b60405180910390a15b808061187490612f67565b91505061159b565b5050565b60016000808282546118929190612dfc565b925050819055506040518060a0016040528060005481526020013373ffffffffffffffffffffffffffffffffffffffff1681526020018481526020018381526020018281525060036000820151816000015560208201518160010160006101000a81548173ffffffffffffffffffffffffffffffffffffffff021916908373ffffffffffffffffffffffffffffffffffffffff1602179055506040820151816002019080519060200190611947929190612506565b506060820151816003019080519060200190611964929190612506565b506080820151816004019080519060200190611981929190612506565b509050506040518060a0016040528060005481526020013373ffffffffffffffffffffffffffffffffffffffff16815260200184815260200183815260200182815250600a60003373ffffffffffffffffffffffffffffffffffffffff1673ffffffffffffffffffffffffffffffffffffffff1681526020019081526020016000206000820151816000015560208201518160010160006101000a81548173ffffffffffffffffffffffffffffffffffffffff021916908373ffffffffffffffffffffffffffffffffffffffff1602179055506040820151816002019080519060200190611a70929190612506565b506060820151816003019080519060200190611a8d929190612506565b506080820151816004019080519060200190611aaa929190612506565b509050507fff852d6df85a7c9d5633fc6f1b12037ff7b427128b087851c0b3ef914c0a4a6960005433858585604051611ae7959493929190612c5a565b60405180910390a1505050565b600a6020528060005260406000206000915090508060000154908060010160009054906101000a900473ffffffffffffffffffffffffffffffffffffffff1690806002018054611b4390612f04565b80601f0160208091040260200160405190810160405280929190818152602001828054611b6f90612f04565b8015611bbc5780601f10611b9157610100808354040283529160200191611bbc565b820191906000526020600020905b815481529060010190602001808311611b9f57829003601f168201915b505050505090806003018054611bd190612f04565b80601f0160208091040260200160405190810160405280929190818152602001828054611bfd90612f04565b8015611c4a5780601f10611c1f57610100808354040283529160200191611c4a565b820191906000526020600020905b815481529060010190602001808311611c2d57829003601f168201915b505050505090806004018054611c5f90612f04565b80601f0160208091040260200160405190810160405280929190818152602001828054611c8b90612f04565b8015611cd85780601f10611cad57610100808354040283529160200191611cd8565b820191906000526020600020905b815481529060010190602001808311611cbb57829003601f168201915b5050505050905085565b6000600154905090565b60038060000154908060010160009054906101000a900473ffffffffffffffffffffffffffffffffffffffff1690806002018054611d2990612f04565b80601f0160208091040260200160405190810160405280929190818152602001828054611d5590612f04565b8015611da25780601f10611d7757610100808354040283529160200191611da2565b820191906000526020600020905b815481529060010190602001808311611d8557829003601f168201915b505050505090806003018054611db790612f04565b80601f0160208091040260200160405190810160405280929190818152602001828054611de390612f04565b8015611e305780601f10611e0557610100808354040283529160200191611e30565b820191906000526020600020905b815481529060010190602001808311611e1357829003601f168201915b505050505090806004018054611e4590612f04565b80601f0160208091040260200160405190810160405280929190818152602001828054611e7190612f04565b8015611ebe5780601f10611e9357610100808354040283529160200191611ebe565b820191906000526020600020905b815481529060010190602001808311611ea157829003601f168201915b5050505050905085565b600160026000828254611edb9190612dfc565b92505081905550600860405180606001604052806002548152602001848152602001838152509080600181540180825580915050600190039060005260206000209060030201600090919091909150600082015181600001556020820151816001019080519060200190611f50929190612506565b506040820151816002019080519060200190611f6d929190612506565b5050507fc27a95e89d7426271763b60305cad3936e9820841c91ddf88854224bccab8fe56002548383604051611fa593929190612cc2565b60405180910390a15050565b60008311611fbe57600080fd5b60005b6001600880549050611fd39190612e52565b8110156122a4578360088281548110612015577f4e487b7100000000000000000000000000000000000000000000000000000000600052603260045260246000fd5b906000526020600020906003020160000154141561229157600060088281548110612069577f4e487b7100000000000000000000000000000000000000000000000000000000600052603260045260246000fd5b90600052602060002090600302016040518060600160405290816000820154815260200160018201805461209c90612f04565b80601f01602080910402602001604051908101604052809291908181526020018280546120c890612f04565b80156121155780601f106120ea57610100808354040283529160200191612115565b820191906000526020600020905b8154815290600101906020018083116120f857829003601f168201915b5050505050815260200160028201805461212e90612f04565b80601f016020809104026020016040519081016040528092919081815260200182805461215a90612f04565b80156121a75780601f1061217c576101008083540402835291602001916121a7565b820191906000526020600020905b81548152906001019060200180831161218a57829003601f168201915b505050505081525050905083816020018190525082816040018190525080600883815481106121ff577f4e487b7100000000000000000000000000000000000000000000000000000000600052603260045260246000fd5b9060005260206000209060030201600082015181600001556020820151816001019080519060200190612233929190612506565b506040820151816002019080519060200190612250929190612506565b509050507ffebeb80e9d2f15492bb52afdf89da03c0f2882cc07107859d409aa9012e111c985858560405161228793929190612cc2565b60405180910390a1505b808061229c90612f67565b915050611fc1565b50505050565b600981815481106122ba57600080fd5b906000526020600020016000915054906101000a900473ffffffffffffffffffffffffffffffffffffffff1681565b6060600980548060200260200160405190810160405280929190818152602001828054801561236d57602002820191906000526020600020905b8160009054906101000a900473ffffffffffffffffffffffffffffffffffffffff1673ffffffffffffffffffffffffffffffffffffffff1681526020019060010190808311612323575b5050505050905090565b6008818154811061238757600080fd5b90600052602060002090600302016000915090508060000154908060010180546123b090612f04565b80601f01602080910402602001604051908101604052809291908181526020018280546123dc90612f04565b80156124295780601f106123fe57610100808354040283529160200191612429565b820191906000526020600020905b81548152906001019060200180831161240c57829003601f168201915b50505050509080600201805461243e90612f04565b80601f016020809104026020016040519081016040528092919081815260200182805461246a90612f04565b80156124b75780601f1061248c576101008083540402835291602001916124b7565b820191906000526020600020905b81548152906001019060200180831161249a57829003601f168201915b5050505050905083565b6040518060a0016040528060008152602001600073ffffffffffffffffffffffffffffffffffffffff1681526020016060815260200160608152602001606081525090565b82805461251290612f04565b90600052602060002090601f016020900481019282612534576000855561257b565b82601f1061254d57805160ff191683800117855561257b565b8280016001018555821561257b579182015b8281111561257a57825182559160200191906001019061255f565b5b5090506125889190612659565b5090565b50805461259890612f04565b6000825580601f106125aa57506125c9565b601f0160209004906000526020600020908101906125c89190612659565b5b50565b8280546125d890612f04565b90600052602060002090601f0160209004810192826125fa5760008555612648565b82601f1061260b5780548555612648565b8280016001018555821561264857600052602060002091601f016020900482015b8281111561264757825482559160010191906001019061262c565b5b5090506126559190612659565b5090565b5b8082111561267257600081600090555060010161265a565b5090565b600061268961268484612d2c565b612d07565b9050828152602081018484840111156126a157600080fd5b6126ac848285612ec2565b509392505050565b6000813590506126c38161304e565b92915050565b600082601f8301126126da57600080fd5b81356126ea848260208601612676565b91505092915050565b60008135905061270281613065565b92915050565b60006020828403121561271a57600080fd5b6000612728848285016126b4565b91505092915050565b6000806040838503121561274457600080fd5b600083013567ffffffffffffffff81111561275e57600080fd5b61276a858286016126c9565b925050602083013567ffffffffffffffff81111561278757600080fd5b612793858286016126c9565b9150509250929050565b6000806000606084860312156127b257600080fd5b600084013567ffffffffffffffff8111156127cc57600080fd5b6127d8868287016126c9565b935050602084013567ffffffffffffffff8111156127f557600080fd5b612801868287016126c9565b925050604084013567ffffffffffffffff81111561281e57600080fd5b61282a868287016126c9565b9150509250925092565b60006020828403121561284657600080fd5b6000612854848285016126f3565b91505092915050565b60008060006060848603121561287257600080fd5b6000612880868287016126f3565b935050602084013567ffffffffffffffff81111561289d57600080fd5b6128a9868287016126c9565b925050604084013567ffffffffffffffff8111156128c657600080fd5b6128d2868287016126c9565b9150509250925092565b60006128e88383612908565b60208301905092915050565b60006129008383612aef565b905092915050565b61291181612e86565b82525050565b61292081612e86565b82525050565b600061293182612d7d565b61293b8185612db8565b935061294683612d5d565b8060005b8381101561297757815161295e88826128dc565b975061296983612d9e565b92505060018101905061294a565b5085935050505092915050565b600061298f82612d88565b6129998185612dc9565b9350836020820285016129ab85612d6d565b8060005b858110156129e757848403895281516129c885826128f4565b94506129d383612dab565b925060208a019950506001810190506129af565b50829750879550505050505092915050565b6000612a0482612d93565b612a0e8185612dda565b9350612a1e818560208601612ed1565b612a278161303d565b840191505092915050565b6000612a3d82612d93565b612a478185612deb565b9350612a57818560208601612ed1565b612a608161303d565b840191505092915050565b600060a083016000830151612a836000860182612b46565b506020830151612a966020860182612908565b5060408301518482036040860152612aae82826129f9565b91505060608301518482036060860152612ac882826129f9565b91505060808301518482036080860152612ae282826129f9565b9150508091505092915050565b6000606083016000830151612b076000860182612b46565b5060208301518482036020860152612b1f82826129f9565b91505060408301518482036040860152612b3982826129f9565b9150508091505092915050565b612b4f81612eb8565b82525050565b612b5e81612eb8565b82525050565b6000602082019050612b796000830184612917565b92915050565b6000608082019050612b946000830187612917565b8181036020830152612ba68186612a32565b90508181036040830152612bba8185612a32565b90508181036060830152612bce8184612a32565b905095945050505050565b60006020820190508181036000830152612bf38184612926565b905092915050565b60006020820190508181036000830152612c158184612984565b905092915050565b60006020820190508181036000830152612c378184612a6b565b905092915050565b6000602082019050612c546000830184612b55565b92915050565b600060a082019050612c6f6000830188612b55565b612c7c6020830187612917565b8181036040830152612c8e8186612a32565b90508181036060830152612ca28185612a32565b90508181036080830152612cb68184612a32565b90509695505050505050565b6000606082019050612cd76000830186612b55565b8181036020830152612ce98185612a32565b90508181036040830152612cfd8184612a32565b9050949350505050565b6000612d11612d22565b9050612d1d8282612f36565b919050565b6000604051905090565b600067ffffffffffffffff821115612d4757612d4661300e565b5b612d508261303d565b9050602081019050919050565b6000819050602082019050919050565b6000819050602082019050919050565b600081519050919050565b600081519050919050565b600081519050919050565b6000602082019050919050565b6000602082019050919050565b600082825260208201905092915050565b600082825260208201905092915050565b600082825260208201905092915050565b600082825260208201905092915050565b6000612e0782612eb8565b9150612e1283612eb8565b9250827fffffffffffffffffffffffffffffffffffffffffffffffffffffffffffffffff03821115612e4757612e46612fb0565b5b828201905092915050565b6000612e5d82612eb8565b9150612e6883612eb8565b925082821015612e7b57612e7a612fb0565b5b828203905092915050565b6000612e9182612e98565b9050919050565b600073ffffffffffffffffffffffffffffffffffffffff82169050919050565b6000819050919050565b82818337600083830152505050565b60005b83811015612eef578082015181840152602081019050612ed4565b83811115612efe576000848401525b50505050565b60006002820490506001821680612f1c57607f821691505b60208210811415612f3057612f2f612fdf565b5b50919050565b612f3f8261303d565b810181811067ffffffffffffffff82111715612f5e57612f5d61300e565b5b80604052505050565b6000612f7282612eb8565b91507fffffffffffffffffffffffffffffffffffffffffffffffffffffffffffffffff821415612fa557612fa4612fb0565b5b600182019050919050565b7f4e487b7100000000000000000000000000000000000000000000000000000000600052601160045260246000fd5b7f4e487b7100000000000000000000000000000000000000000000000000000000600052602260045260246000fd5b7f4e487b7100000000000000000000000000000000000000000000000000000000600052604160045260246000fd5b6000601f19601f8301169050919050565b61305781612e86565b811461306257600080fd5b50565b61306e81612eb8565b811461307957600080fd5b5056fea2646970667358221220482553cc6ce82ab351359577a4c12d3ee7ff8341a6975a7c9beb9326ef97fd1164736f6c63430008040033",
  "linkReferences": {},
  "deployedLinkReferences": {}
}