{
  "_format": "hh-sol-artifact-1",
  "contractName": "MetaCard",
  "sourceName": "contracts/MetaCard.sol",
  "abi": [
    {
      "anonymous": false,
      "inputs": [
        {
          "indexed": false,
          "internalType": "address",
          "name": "owner",
          "type": "address"
        },
        {
          "indexed": false,
          "internalType": "address",
          "name": "contactAddress",
          "type": "address"
        }
      ],
      "name": "AddContact",
      "type": "event"
    },
    {
      "anonymous": false,
      "inputs": [
        {
          "indexed": true,
          "internalType": "address",
          "name": "_owner",
          "type": "address"
        },
        {
          "indexed": false,
          "internalType": "uint256",
          "name": "id",
          "type": "uint256"
        },
        {
          "indexed": false,
          "internalType": "string",
          "name": "name",
          "type": "string"
        },
        {
          "indexed": false,
          "internalType": "string",
          "name": "link",
          "type": "string"
        }
      ],
      "name": "AddSocialLink",
      "type": "event"
    },
    {
      "anonymous": false,
      "inputs": [
        {
          "indexed": true,
          "internalType": "address",
          "name": "_owner",
          "type": "address"
        },
        {
          "indexed": false,
          "internalType": "uint256",
          "name": "id",
          "type": "uint256"
        },
        {
          "indexed": false,
          "internalType": "string",
          "name": "fullName",
          "type": "string"
        },
        {
          "indexed": false,
          "internalType": "string",
          "name": "title",
          "type": "string"
        },
        {
          "indexed": false,
          "internalType": "string",
          "name": "email",
          "type": "string"
        },
        {
          "indexed": false,
          "internalType": "string",
          "name": "phoneNumber",
          "type": "string"
        }
      ],
      "name": "CreateBusinessCard",
      "type": "event"
    },
    {
      "anonymous": false,
      "inputs": [
        {
          "indexed": false,
          "internalType": "address",
          "name": "owner",
          "type": "address"
        },
        {
          "indexed": false,
          "internalType": "address",
          "name": "contactAddress",
          "type": "address"
        }
      ],
      "name": "RemoveContact",
      "type": "event"
    },
    {
      "anonymous": false,
      "inputs": [
        {
          "indexed": true,
          "internalType": "address",
          "name": "_owner",
          "type": "address"
        },
        {
          "indexed": false,
          "internalType": "uint256",
          "name": "id",
          "type": "uint256"
        }
      ],
      "name": "RemoveSocialLink",
      "type": "event"
    },
    {
      "anonymous": false,
      "inputs": [
        {
          "indexed": true,
          "internalType": "address",
          "name": "_owner",
          "type": "address"
        },
        {
          "indexed": false,
          "internalType": "string",
          "name": "fullName",
          "type": "string"
        },
        {
          "indexed": false,
          "internalType": "string",
          "name": "title",
          "type": "string"
        },
        {
          "indexed": false,
          "internalType": "string",
          "name": "email",
          "type": "string"
        },
        {
          "indexed": false,
          "internalType": "string",
          "name": "phoneNumber",
          "type": "string"
        }
      ],
      "name": "UpdateBusinessCard",
      "type": "event"
    },
    {
      "anonymous": false,
      "inputs": [
        {
          "indexed": true,
          "internalType": "address",
          "name": "_owner",
          "type": "address"
        },
        {
          "indexed": false,
          "internalType": "uint256",
          "name": "id",
          "type": "uint256"
        },
        {
          "indexed": false,
          "internalType": "string",
          "name": "name",
          "type": "string"
        },
        {
          "indexed": false,
          "internalType": "string",
          "name": "link",
          "type": "string"
        }
      ],
      "name": "UpdateSocialLink",
      "type": "event"
    },
    {
      "inputs": [
        {
          "internalType": "address",
          "name": "_contact",
          "type": "address"
        }
      ],
      "name": "addContact",
      "outputs": [],
      "stateMutability": "nonpayable",
      "type": "function"
    },
    {
      "inputs": [
        {
          "internalType": "string",
          "name": "_name",
          "type": "string"
        },
        {
          "internalType": "string",
          "name": "_link",
          "type": "string"
        }
      ],
      "name": "addSocialLink",
      "outputs": [],
      "stateMutability": "nonpayable",
      "type": "function"
    },
    {
      "inputs": [
        {
          "internalType": "address",
          "name": "",
          "type": "address"
        }
      ],
      "name": "allBusinessCards",
      "outputs": [
        {
          "internalType": "address",
          "name": "owner",
          "type": "address"
        },
        {
          "internalType": "uint256",
          "name": "id",
          "type": "uint256"
        },
        {
          "internalType": "string",
          "name": "fullName",
          "type": "string"
        },
        {
          "internalType": "string",
          "name": "title",
          "type": "string"
        },
        {
          "internalType": "string",
          "name": "email",
          "type": "string"
        },
        {
          "internalType": "string",
          "name": "phoneNumber",
          "type": "string"
        }
      ],
      "stateMutability": "view",
      "type": "function"
    },
    {
      "inputs": [
        {
          "internalType": "address",
          "name": "",
          "type": "address"
        },
        {
          "internalType": "uint256",
          "name": "",
          "type": "uint256"
        }
      ],
      "name": "contacts",
      "outputs": [
        {
          "internalType": "address",
          "name": "",
          "type": "address"
        }
      ],
      "stateMutability": "view",
      "type": "function"
    },
    {
      "inputs": [
        {
          "internalType": "string",
          "name": "_fullName",
          "type": "string"
        },
        {
          "internalType": "string",
          "name": "_title",
          "type": "string"
        },
        {
          "internalType": "string",
          "name": "_email",
          "type": "string"
        },
        {
          "internalType": "string",
          "name": "_phoneNumber",
          "type": "string"
        }
      ],
      "name": "createBusinessCard",
      "outputs": [],
      "stateMutability": "nonpayable",
      "type": "function"
    },
    {
      "inputs": [],
      "name": "getAllContacts",
      "outputs": [
        {
          "internalType": "address[]",
          "name": "",
          "type": "address[]"
        }
      ],
      "stateMutability": "view",
      "type": "function"
    },
    {
      "inputs": [],
      "name": "getBusinessCard",
      "outputs": [
        {
          "components": [
            {
              "internalType": "address",
              "name": "owner",
              "type": "address"
            },
            {
              "internalType": "uint256",
              "name": "id",
              "type": "uint256"
            },
            {
              "internalType": "string",
              "name": "fullName",
              "type": "string"
            },
            {
              "internalType": "string",
              "name": "title",
              "type": "string"
            },
            {
              "internalType": "string",
              "name": "email",
              "type": "string"
            },
            {
              "internalType": "string",
              "name": "phoneNumber",
              "type": "string"
            }
          ],
          "internalType": "struct MetaCard.BusinessCard",
          "name": "",
          "type": "tuple"
        }
      ],
      "stateMutability": "view",
      "type": "function"
    },
    {
      "inputs": [
        {
          "internalType": "address",
          "name": "_address",
          "type": "address"
        }
      ],
      "name": "getBusinessCardByAddress",
      "outputs": [
        {
          "components": [
            {
              "internalType": "address",
              "name": "owner",
              "type": "address"
            },
            {
              "internalType": "uint256",
              "name": "id",
              "type": "uint256"
            },
            {
              "internalType": "string",
              "name": "fullName",
              "type": "string"
            },
            {
              "internalType": "string",
              "name": "title",
              "type": "string"
            },
            {
              "internalType": "string",
              "name": "email",
              "type": "string"
            },
            {
              "internalType": "string",
              "name": "phoneNumber",
              "type": "string"
            }
          ],
          "internalType": "struct MetaCard.BusinessCard",
          "name": "",
          "type": "tuple"
        }
      ],
      "stateMutability": "view",
      "type": "function"
    },
    {
      "inputs": [],
      "name": "getBusinessCardsCount",
      "outputs": [
        {
          "internalType": "uint256",
          "name": "",
          "type": "uint256"
        }
      ],
      "stateMutability": "view",
      "type": "function"
    },
    {
      "inputs": [],
      "name": "getContactsCount",
      "outputs": [
        {
          "internalType": "uint256",
          "name": "",
          "type": "uint256"
        }
      ],
      "stateMutability": "view",
      "type": "function"
    },
    {
      "inputs": [],
      "name": "getSocialLinks",
      "outputs": [
        {
          "components": [
            {
              "internalType": "uint256",
              "name": "id",
              "type": "uint256"
            },
            {
              "internalType": "string",
              "name": "name",
              "type": "string"
            },
            {
              "internalType": "string",
              "name": "link",
              "type": "string"
            }
          ],
          "internalType": "struct MetaCard.SocialLink[]",
          "name": "",
          "type": "tuple[]"
        }
      ],
      "stateMutability": "view",
      "type": "function"
    },
    {
      "inputs": [],
      "name": "getSocialLinksCount",
      "outputs": [
        {
          "internalType": "uint256",
          "name": "",
          "type": "uint256"
        }
      ],
      "stateMutability": "view",
      "type": "function"
    },
    {
      "inputs": [
        {
          "internalType": "address",
          "name": "_contact",
          "type": "address"
        }
      ],
      "name": "removeContact",
      "outputs": [],
      "stateMutability": "nonpayable",
      "type": "function"
    },
    {
      "inputs": [
        {
          "internalType": "uint256",
          "name": "_id",
          "type": "uint256"
        }
      ],
      "name": "removeSocialLink",
      "outputs": [],
      "stateMutability": "nonpayable",
      "type": "function"
    },
    {
      "inputs": [
        {
          "internalType": "address",
          "name": "",
          "type": "address"
        },
        {
          "internalType": "uint256",
          "name": "",
          "type": "uint256"
        }
      ],
      "name": "socialLinks",
      "outputs": [
        {
          "internalType": "uint256",
          "name": "id",
          "type": "uint256"
        },
        {
          "internalType": "string",
          "name": "name",
          "type": "string"
        },
        {
          "internalType": "string",
          "name": "link",
          "type": "string"
        }
      ],
      "stateMutability": "view",
      "type": "function"
    },
    {
      "inputs": [
        {
          "internalType": "string",
          "name": "_fullName",
          "type": "string"
        },
        {
          "internalType": "string",
          "name": "_title",
          "type": "string"
        },
        {
          "internalType": "string",
          "name": "_email",
          "type": "string"
        },
        {
          "internalType": "string",
          "name": "_phoneNumber",
          "type": "string"
        }
      ],
      "name": "updateBusinessCard",
      "outputs": [],
      "stateMutability": "nonpayable",
      "type": "function"
    },
    {
      "inputs": [
        {
          "internalType": "uint256",
          "name": "_id",
          "type": "uint256"
        },
        {
          "internalType": "string",
          "name": "_name",
          "type": "string"
        },
        {
          "internalType": "string",
          "name": "_link",
          "type": "string"
        }
      ],
      "name": "updateSocialLink",
      "outputs": [],
      "stateMutability": "nonpayable",
      "type": "function"
    }
  ],
  "bytecode": "0x608060405234801561001057600080fd5b506136b3806100206000396000f3fe608060405234801561001057600080fd5b506004361061010b5760003560e01c8063a6a66072116100a2578063d9d3fa6411610071578063d9d3fa6414610297578063de9a345e146102b3578063e08a2554146102e3578063ef1d6ddd146102ff578063ff1aca1f1461031d5761010b565b8063a6a660721461020c578063b838f08014610228578063d02969ee1461025d578063d0e5cb25146102795761010b565b806331409541116100de578063314095411461019a57806379600b33146101b65780639dc623bf146101d4578063a414b379146101f05761010b565b806302a326b0146101105780630a8f41b41461012e5780630c4257fa1461014c5780632d5f20b31461016a575b600080fd5b61011861034f565b6040516101259190613239565b60405180910390f35b610136610399565b6040516101439190613194565b60405180910390f35b610154610563565b6040516101619190613217565b60405180910390f35b610184600480360381019061017f9190612bd3565b610862565b6040516101919190613217565b60405180910390f35b6101b460048036038101906101af9190612ca4565b610c05565b005b6101be611082565b6040516101cb9190613239565b60405180910390f35b6101ee60048036038101906101e99190612d67565b61108b565b005b61020a60048036038101906102059190612bd3565b611436565b005b61022660048036038101906102219190612bd3565b6118ad565b005b610242600480360381019061023d9190612bd3565b611d15565b604051610254969594939291906130f5565b60405180910390f35b61027760048036038101906102729190612ca4565b611f91565b005b610281612154565b60405161028e9190613239565b60405180910390f35b6102b160048036038101906102ac9190612c38565b61219e565b005b6102cd60048036038101906102c89190612bfc565b61231d565b6040516102da91906130b1565b60405180910390f35b6102fd60048036038101906102f89190612d90565b61236b565b005b610307612763565b6040516103149190613172565b60405180910390f35b61033760048036038101906103329190612bfc565b61282e565b60405161034693929190613254565b60405180910390f35b6000600260003373ffffffffffffffffffffffffffffffffffffffff1673ffffffffffffffffffffffffffffffffffffffff16815260200190815260200160002080549050905090565b6060600260003373ffffffffffffffffffffffffffffffffffffffff1673ffffffffffffffffffffffffffffffffffffffff168152602001908152602001600020805480602002602001604051908101604052809291908181526020016000905b8282101561055a57838290600052602060002090600302016040518060600160405290816000820154815260200160018201805461043790613505565b80601f016020809104026020016040519081016040528092919081815260200182805461046390613505565b80156104b05780601f10610485576101008083540402835291602001916104b0565b820191906000526020600020905b81548152906001019060200180831161049357829003601f168201915b505050505081526020016002820180546104c990613505565b80601f01602080910402602001604051908101604052809291908181526020018280546104f590613505565b80156105425780601f1061051757610100808354040283529160200191610542565b820191906000526020600020905b81548152906001019060200180831161052557829003601f168201915b505050505081525050815260200190600101906103fa565b50505050905090565b61056b612985565b600160003373ffffffffffffffffffffffffffffffffffffffff1673ffffffffffffffffffffffffffffffffffffffff1681526020019081526020016000206040518060c00160405290816000820160009054906101000a900473ffffffffffffffffffffffffffffffffffffffff1673ffffffffffffffffffffffffffffffffffffffff1673ffffffffffffffffffffffffffffffffffffffff1681526020016001820154815260200160028201805461062590613505565b80601f016020809104026020016040519081016040528092919081815260200182805461065190613505565b801561069e5780601f106106735761010080835404028352916020019161069e565b820191906000526020600020905b81548152906001019060200180831161068157829003601f168201915b505050505081526020016003820180546106b790613505565b80601f01602080910402602001604051908101604052809291908181526020018280546106e390613505565b80156107305780601f1061070557610100808354040283529160200191610730565b820191906000526020600020905b81548152906001019060200180831161071357829003601f168201915b5050505050815260200160048201805461074990613505565b80601f016020809104026020016040519081016040528092919081815260200182805461077590613505565b80156107c25780601f10610797576101008083540402835291602001916107c2565b820191906000526020600020905b8154815290600101906020018083116107a557829003601f168201915b505050505081526020016005820180546107db90613505565b80601f016020809104026020016040519081016040528092919081815260200182805461080790613505565b80156108545780601f1061082957610100808354040283529160200191610854565b820191906000526020600020905b81548152906001019060200180831161083757829003601f168201915b505050505081525050905090565b61086a612985565b600073ffffffffffffffffffffffffffffffffffffffff16600160008473ffffffffffffffffffffffffffffffffffffffff1673ffffffffffffffffffffffffffffffffffffffff16815260200190815260200160002060000160009054906101000a900473ffffffffffffffffffffffffffffffffffffffff1673ffffffffffffffffffffffffffffffffffffffff16141561090657600080fd5b6000600160008473ffffffffffffffffffffffffffffffffffffffff1673ffffffffffffffffffffffffffffffffffffffff1681526020019081526020016000206040518060c00160405290816000820160009054906101000a900473ffffffffffffffffffffffffffffffffffffffff1673ffffffffffffffffffffffffffffffffffffffff1673ffffffffffffffffffffffffffffffffffffffff168152602001600182015481526020016002820180546109c290613505565b80601f01602080910402602001604051908101604052809291908181526020018280546109ee90613505565b8015610a3b5780601f10610a1057610100808354040283529160200191610a3b565b820191906000526020600020905b815481529060010190602001808311610a1e57829003601f168201915b50505050508152602001600382018054610a5490613505565b80601f0160208091040260200160405190810160405280929190818152602001828054610a8090613505565b8015610acd5780601f10610aa257610100808354040283529160200191610acd565b820191906000526020600020905b815481529060010190602001808311610ab057829003601f168201915b50505050508152602001600482018054610ae690613505565b80601f0160208091040260200160405190810160405280929190818152602001828054610b1290613505565b8015610b5f5780601f10610b3457610100808354040283529160200191610b5f565b820191906000526020600020905b815481529060010190602001808311610b4257829003601f168201915b50505050508152602001600582018054610b7890613505565b80601f0160208091040260200160405190810160405280929190818152602001828054610ba490613505565b8015610bf15780601f10610bc657610100808354040283529160200191610bf1565b820191906000526020600020905b815481529060010190602001808311610bd457829003601f168201915b505050505081525050905080915050919050565b6000600160003373ffffffffffffffffffffffffffffffffffffffff1673ffffffffffffffffffffffffffffffffffffffff1681526020019081526020016000206040518060c00160405290816000820160009054906101000a900473ffffffffffffffffffffffffffffffffffffffff1673ffffffffffffffffffffffffffffffffffffffff1673ffffffffffffffffffffffffffffffffffffffff16815260200160018201548152602001600282018054610cc190613505565b80601f0160208091040260200160405190810160405280929190818152602001828054610ced90613505565b8015610d3a5780601f10610d0f57610100808354040283529160200191610d3a565b820191906000526020600020905b815481529060010190602001808311610d1d57829003601f168201915b50505050508152602001600382018054610d5390613505565b80601f0160208091040260200160405190810160405280929190818152602001828054610d7f90613505565b8015610dcc5780601f10610da157610100808354040283529160200191610dcc565b820191906000526020600020905b815481529060010190602001808311610daf57829003601f168201915b50505050508152602001600482018054610de590613505565b80601f0160208091040260200160405190810160405280929190818152602001828054610e1190613505565b8015610e5e5780601f10610e3357610100808354040283529160200191610e5e565b820191906000526020600020905b815481529060010190602001808311610e4157829003601f168201915b50505050508152602001600582018054610e7790613505565b80601f0160208091040260200160405190810160405280929190818152602001828054610ea390613505565b8015610ef05780601f10610ec557610100808354040283529160200191610ef0565b820191906000526020600020905b815481529060010190602001808311610ed357829003601f168201915b5050505050815250509050848160400181905250838160600181905250828160800181905250818160a0018190525080600160003373ffffffffffffffffffffffffffffffffffffffff1673ffffffffffffffffffffffffffffffffffffffff16815260200190815260200160002060008201518160000160006101000a81548173ffffffffffffffffffffffffffffffffffffffff021916908373ffffffffffffffffffffffffffffffffffffffff160217905550602082015181600101556040820151816002019080519060200190610fcc9291906129d1565b506060820151816003019080519060200190610fe99291906129d1565b5060808201518160040190805190602001906110069291906129d1565b5060a08201518160050190805190602001906110239291906129d1565b509050503373ffffffffffffffffffffffffffffffffffffffff167fd5a43b2049b40ce6d1c3175b5e4a5084585cda50ef709abacb6ddfa2ccd2e0978686868660405161107394939291906131b6565b60405180910390a25050505050565b60008054905090565b6000811161109857600080fd5b60005b600260003373ffffffffffffffffffffffffffffffffffffffff1673ffffffffffffffffffffffffffffffffffffffff168152602001908152602001600020805490508110156113e45781600260003373ffffffffffffffffffffffffffffffffffffffff1673ffffffffffffffffffffffffffffffffffffffff168152602001908152602001600020828154811061115d577f4e487b7100000000000000000000000000000000000000000000000000000000600052603260045260246000fd5b90600052602060002090600302016000015414156113d157600260003373ffffffffffffffffffffffffffffffffffffffff1673ffffffffffffffffffffffffffffffffffffffff1681526020019081526020016000206001600260003373ffffffffffffffffffffffffffffffffffffffff1673ffffffffffffffffffffffffffffffffffffffff168152602001908152602001600020805490506112039190613453565b8154811061123a577f4e487b7100000000000000000000000000000000000000000000000000000000600052603260045260246000fd5b9060005260206000209060030201600260003373ffffffffffffffffffffffffffffffffffffffff1673ffffffffffffffffffffffffffffffffffffffff16815260200190815260200160002082815481106112bf577f4e487b7100000000000000000000000000000000000000000000000000000000600052603260045260246000fd5b90600052602060002090600302016000820154816000015560018201816001019080546112eb90613505565b6112f6929190612a57565b50600282018160020190805461130b90613505565b611316929190612a57565b50905050600260003373ffffffffffffffffffffffffffffffffffffffff1673ffffffffffffffffffffffffffffffffffffffff16815260200190815260200160002080548061138f577f4e487b7100000000000000000000000000000000000000000000000000000000600052603160045260246000fd5b60019003818190600052602060002090600302016000808201600090556001820160006113bc9190612ae4565b6002820160006113cc9190612ae4565b505090555b80806113dc90613568565b91505061109b565b503373ffffffffffffffffffffffffffffffffffffffff167fd6434a95f6905e04b83cdd9d4c31641a79891fa44503501ca072e9fa843406f88260405161142b9190613239565b60405180910390a250565b600073ffffffffffffffffffffffffffffffffffffffff16600160008373ffffffffffffffffffffffffffffffffffffffff1673ffffffffffffffffffffffffffffffffffffffff16815260200190815260200160002060000160009054906101000a900473ffffffffffffffffffffffffffffffffffffffff1673ffffffffffffffffffffffffffffffffffffffff1614156114d257600080fd5b6000600160008373ffffffffffffffffffffffffffffffffffffffff1673ffffffffffffffffffffffffffffffffffffffff1681526020019081526020016000206040518060c00160405290816000820160009054906101000a900473ffffffffffffffffffffffffffffffffffffffff1673ffffffffffffffffffffffffffffffffffffffff1673ffffffffffffffffffffffffffffffffffffffff1681526020016001820154815260200160028201805461158e90613505565b80601f01602080910402602001604051908101604052809291908181526020018280546115ba90613505565b80156116075780601f106115dc57610100808354040283529160200191611607565b820191906000526020600020905b8154815290600101906020018083116115ea57829003601f168201915b5050505050815260200160038201805461162090613505565b80601f016020809104026020016040519081016040528092919081815260200182805461164c90613505565b80156116995780601f1061166e57610100808354040283529160200191611699565b820191906000526020600020905b81548152906001019060200180831161167c57829003601f168201915b505050505081526020016004820180546116b290613505565b80601f01602080910402602001604051908101604052809291908181526020018280546116de90613505565b801561172b5780601f106117005761010080835404028352916020019161172b565b820191906000526020600020905b81548152906001019060200180831161170e57829003601f168201915b5050505050815260200160058201805461174490613505565b80601f016020809104026020016040519081016040528092919081815260200182805461177090613505565b80156117bd5780601f10611792576101008083540402835291602001916117bd565b820191906000526020600020905b8154815290600101906020018083116117a057829003601f168201915b5050505050815250509050600360003373ffffffffffffffffffffffffffffffffffffffff1673ffffffffffffffffffffffffffffffffffffffff16815260200190815260200160002081600001519080600181540180825580915050600190039060005260206000200160009091909190916101000a81548173ffffffffffffffffffffffffffffffffffffffff021916908373ffffffffffffffffffffffffffffffffffffffff1602179055507fdfbd93ccce7cce70f7d5aec1acabeb8cc91947b541fc4814bc1cb0032e72f4bf3382600001516040516118a19291906130cc565b60405180910390a15050565b600073ffffffffffffffffffffffffffffffffffffffff16600160008373ffffffffffffffffffffffffffffffffffffffff1673ffffffffffffffffffffffffffffffffffffffff16815260200190815260200160002060000160009054906101000a900473ffffffffffffffffffffffffffffffffffffffff1673ffffffffffffffffffffffffffffffffffffffff16141561194957600080fd5b60005b600360003373ffffffffffffffffffffffffffffffffffffffff1673ffffffffffffffffffffffffffffffffffffffff16815260200190815260200160002080549050811015611cd8578173ffffffffffffffffffffffffffffffffffffffff16600360003373ffffffffffffffffffffffffffffffffffffffff1673ffffffffffffffffffffffffffffffffffffffff1681526020019081526020016000208281548110611a24577f4e487b7100000000000000000000000000000000000000000000000000000000600052603260045260246000fd5b9060005260206000200160009054906101000a900473ffffffffffffffffffffffffffffffffffffffff1673ffffffffffffffffffffffffffffffffffffffff161415611cc557600360003373ffffffffffffffffffffffffffffffffffffffff1673ffffffffffffffffffffffffffffffffffffffff1681526020019081526020016000206001600360003373ffffffffffffffffffffffffffffffffffffffff1673ffffffffffffffffffffffffffffffffffffffff16815260200190815260200160002080549050611af99190613453565b81548110611b30577f4e487b7100000000000000000000000000000000000000000000000000000000600052603260045260246000fd5b9060005260206000200160009054906101000a900473ffffffffffffffffffffffffffffffffffffffff16600360003373ffffffffffffffffffffffffffffffffffffffff1673ffffffffffffffffffffffffffffffffffffffff1681526020019081526020016000208281548110611bd2577f4e487b7100000000000000000000000000000000000000000000000000000000600052603260045260246000fd5b9060005260206000200160006101000a81548173ffffffffffffffffffffffffffffffffffffffff021916908373ffffffffffffffffffffffffffffffffffffffff160217905550600360003373ffffffffffffffffffffffffffffffffffffffff1673ffffffffffffffffffffffffffffffffffffffff168152602001908152602001600020805480611c8f577f4e487b7100000000000000000000000000000000000000000000000000000000600052603160045260246000fd5b6001900381819060005260206000200160006101000a81549073ffffffffffffffffffffffffffffffffffffffff021916905590555b8080611cd090613568565b91505061194c565b507f9dc408e59857bcd0b3dc14717fde2d817014879698316cb0866fa595215afb7c3382604051611d0a9291906130cc565b60405180910390a150565b60016020528060005260406000206000915090508060000160009054906101000a900473ffffffffffffffffffffffffffffffffffffffff1690806001015490806002018054611d6490613505565b80601f0160208091040260200160405190810160405280929190818152602001828054611d9090613505565b8015611ddd5780601f10611db257610100808354040283529160200191611ddd565b820191906000526020600020905b815481529060010190602001808311611dc057829003601f168201915b505050505090806003018054611df290613505565b80601f0160208091040260200160405190810160405280929190818152602001828054611e1e90613505565b8015611e6b5780601f10611e4057610100808354040283529160200191611e6b565b820191906000526020600020905b815481529060010190602001808311611e4e57829003601f168201915b505050505090806004018054611e8090613505565b80601f0160208091040260200160405190810160405280929190818152602001828054611eac90613505565b8015611ef95780601f10611ece57610100808354040283529160200191611ef9565b820191906000526020600020905b815481529060010190602001808311611edc57829003601f168201915b505050505090806005018054611f0e90613505565b80601f0160208091040260200160405190810160405280929190818152602001828054611f3a90613505565b8015611f875780601f10611f5c57610100808354040283529160200191611f87565b820191906000526020600020905b815481529060010190602001808311611f6a57829003601f168201915b5050505050905086565b6001600080828254611fa391906133fd565b925050819055506040518060c001604052803373ffffffffffffffffffffffffffffffffffffffff168152602001600054815260200185815260200184815260200183815260200182815250600160003373ffffffffffffffffffffffffffffffffffffffff1673ffffffffffffffffffffffffffffffffffffffff16815260200190815260200160002060008201518160000160006101000a81548173ffffffffffffffffffffffffffffffffffffffff021916908373ffffffffffffffffffffffffffffffffffffffff16021790555060208201518160010155604082015181600201908051906020019061209b9291906129d1565b5060608201518160030190805190602001906120b89291906129d1565b5060808201518160040190805190602001906120d59291906129d1565b5060a08201518160050190805190602001906120f29291906129d1565b509050503373ffffffffffffffffffffffffffffffffffffffff167f57fe0d750c279e36bd8fdbc0c08b58b5d0dccd55216ff76f0220ffae60acfcd460005486868686604051612146959493929190613299565b60405180910390a250505050565b6000600360003373ffffffffffffffffffffffffffffffffffffffff1673ffffffffffffffffffffffffffffffffffffffff16815260200190815260200160002080549050905090565b6000600260003373ffffffffffffffffffffffffffffffffffffffff1673ffffffffffffffffffffffffffffffffffffffff168152602001908152602001600020805490509050600260003373ffffffffffffffffffffffffffffffffffffffff1673ffffffffffffffffffffffffffffffffffffffff168152602001908152602001600020604051806060016040528060018461223c91906133fd565b815260200185815260200184815250908060018154018082558091505060019003906000526020600020906003020160009091909190915060008201518160000155602082015181600101908051906020019061229a9291906129d1565b5060408201518160020190805190602001906122b79291906129d1565b5050503373ffffffffffffffffffffffffffffffffffffffff167fd62d3de3a7be21ba4f0c9487c9241b2d56fd32f46008dbb6366cb08b41b7fb576001836122ff91906133fd565b858560405161231093929190613254565b60405180910390a2505050565b6003602052816000526040600020818154811061233957600080fd5b906000526020600020016000915091509054906101000a900473ffffffffffffffffffffffffffffffffffffffff1681565b6000831161237857600080fd5b60005b600260003373ffffffffffffffffffffffffffffffffffffffff1673ffffffffffffffffffffffffffffffffffffffff1681526020019081526020016000208054905081101561275d5783600260003373ffffffffffffffffffffffffffffffffffffffff1673ffffffffffffffffffffffffffffffffffffffff168152602001908152602001600020828154811061243d577f4e487b7100000000000000000000000000000000000000000000000000000000600052603260045260246000fd5b906000526020600020906003020160000154141561274a576000600260003373ffffffffffffffffffffffffffffffffffffffff1673ffffffffffffffffffffffffffffffffffffffff16815260200190815260200160002082815481106124ce577f4e487b7100000000000000000000000000000000000000000000000000000000600052603260045260246000fd5b90600052602060002090600302016040518060600160405290816000820154815260200160018201805461250190613505565b80601f016020809104026020016040519081016040528092919081815260200182805461252d90613505565b801561257a5780601f1061254f5761010080835404028352916020019161257a565b820191906000526020600020905b81548152906001019060200180831161255d57829003601f168201915b5050505050815260200160028201805461259390613505565b80601f01602080910402602001604051908101604052809291908181526020018280546125bf90613505565b801561260c5780601f106125e15761010080835404028352916020019161260c565b820191906000526020600020905b8154815290600101906020018083116125ef57829003601f168201915b505050505081525050905083816020018190525082816040018190525080600260003373ffffffffffffffffffffffffffffffffffffffff1673ffffffffffffffffffffffffffffffffffffffff16815260200190815260200160002083815481106126a1577f4e487b7100000000000000000000000000000000000000000000000000000000600052603260045260246000fd5b90600052602060002090600302016000820151816000015560208201518160010190805190602001906126d59291906129d1565b5060408201518160020190805190602001906126f29291906129d1565b509050503373ffffffffffffffffffffffffffffffffffffffff167fd4e149c124d493134d7a0ce3081eda392d02ea193c781e7bf2c9a31d6eea14c786868660405161274093929190613254565b60405180910390a2505b808061275590613568565b91505061237b565b50505050565b6060600360003373ffffffffffffffffffffffffffffffffffffffff1673ffffffffffffffffffffffffffffffffffffffff16815260200190815260200160002080548060200260200160405190810160405280929190818152602001828054801561282457602002820191906000526020600020905b8160009054906101000a900473ffffffffffffffffffffffffffffffffffffffff1673ffffffffffffffffffffffffffffffffffffffff16815260200190600101908083116127da575b5050505050905090565b6002602052816000526040600020818154811061284a57600080fd5b90600052602060002090600302016000915091505080600001549080600101805461287490613505565b80601f01602080910402602001604051908101604052809291908181526020018280546128a090613505565b80156128ed5780601f106128c2576101008083540402835291602001916128ed565b820191906000526020600020905b8154815290600101906020018083116128d057829003601f168201915b50505050509080600201805461290290613505565b80601f016020809104026020016040519081016040528092919081815260200182805461292e90613505565b801561297b5780601f106129505761010080835404028352916020019161297b565b820191906000526020600020905b81548152906001019060200180831161295e57829003601f168201915b5050505050905083565b6040518060c00160405280600073ffffffffffffffffffffffffffffffffffffffff16815260200160008152602001606081526020016060815260200160608152602001606081525090565b8280546129dd90613505565b90600052602060002090601f0160209004810192826129ff5760008555612a46565b82601f10612a1857805160ff1916838001178555612a46565b82800160010185558215612a46579182015b82811115612a45578251825591602001919060010190612a2a565b5b509050612a539190612b24565b5090565b828054612a6390613505565b90600052602060002090601f016020900481019282612a855760008555612ad3565b82601f10612a965780548555612ad3565b82800160010185558215612ad357600052602060002091601f016020900482015b82811115612ad2578254825591600101919060010190612ab7565b5b509050612ae09190612b24565b5090565b508054612af090613505565b6000825580601f10612b025750612b21565b601f016020900490600052602060002090810190612b209190612b24565b5b50565b5b80821115612b3d576000816000905550600101612b25565b5090565b6000612b54612b4f8461332d565b613308565b905082815260208101848484011115612b6c57600080fd5b612b778482856134c3565b509392505050565b600081359050612b8e8161364f565b92915050565b600082601f830112612ba557600080fd5b8135612bb5848260208601612b41565b91505092915050565b600081359050612bcd81613666565b92915050565b600060208284031215612be557600080fd5b6000612bf384828501612b7f565b91505092915050565b60008060408385031215612c0f57600080fd5b6000612c1d85828601612b7f565b9250506020612c2e85828601612bbe565b9150509250929050565b60008060408385031215612c4b57600080fd5b600083013567ffffffffffffffff811115612c6557600080fd5b612c7185828601612b94565b925050602083013567ffffffffffffffff811115612c8e57600080fd5b612c9a85828601612b94565b9150509250929050565b60008060008060808587031215612cba57600080fd5b600085013567ffffffffffffffff811115612cd457600080fd5b612ce087828801612b94565b945050602085013567ffffffffffffffff811115612cfd57600080fd5b612d0987828801612b94565b935050604085013567ffffffffffffffff811115612d2657600080fd5b612d3287828801612b94565b925050606085013567ffffffffffffffff811115612d4f57600080fd5b612d5b87828801612b94565b91505092959194509250565b600060208284031215612d7957600080fd5b6000612d8784828501612bbe565b91505092915050565b600080600060608486031215612da557600080fd5b6000612db386828701612bbe565b935050602084013567ffffffffffffffff811115612dd057600080fd5b612ddc86828701612b94565b925050604084013567ffffffffffffffff811115612df957600080fd5b612e0586828701612b94565b9150509250925092565b6000612e1b8383612e3b565b60208301905092915050565b6000612e33838361303c565b905092915050565b612e4481613487565b82525050565b612e5381613487565b82525050565b6000612e648261337e565b612e6e81856133b9565b9350612e798361335e565b8060005b83811015612eaa578151612e918882612e0f565b9750612e9c8361339f565b925050600181019050612e7d565b5085935050505092915050565b6000612ec282613389565b612ecc81856133ca565b935083602082028501612ede8561336e565b8060005b85811015612f1a5784840389528151612efb8582612e27565b9450612f06836133ac565b925060208a01995050600181019050612ee2565b50829750879550505050505092915050565b6000612f3782613394565b612f4181856133db565b9350612f518185602086016134d2565b612f5a8161363e565b840191505092915050565b6000612f7082613394565b612f7a81856133ec565b9350612f8a8185602086016134d2565b612f938161363e565b840191505092915050565b600060c083016000830151612fb66000860182612e3b565b506020830151612fc96020860182613093565b5060408301518482036040860152612fe18282612f2c565b91505060608301518482036060860152612ffb8282612f2c565b915050608083015184820360808601526130158282612f2c565b91505060a083015184820360a086015261302f8282612f2c565b9150508091505092915050565b60006060830160008301516130546000860182613093565b506020830151848203602086015261306c8282612f2c565b915050604083015184820360408601526130868282612f2c565b9150508091505092915050565b61309c816134b9565b82525050565b6130ab816134b9565b82525050565b60006020820190506130c66000830184612e4a565b92915050565b60006040820190506130e16000830185612e4a565b6130ee6020830184612e4a565b9392505050565b600060c08201905061310a6000830189612e4a565b61311760208301886130a2565b81810360408301526131298187612f65565b9050818103606083015261313d8186612f65565b905081810360808301526131518185612f65565b905081810360a08301526131658184612f65565b9050979650505050505050565b6000602082019050818103600083015261318c8184612e59565b905092915050565b600060208201905081810360008301526131ae8184612eb7565b905092915050565b600060808201905081810360008301526131d08187612f65565b905081810360208301526131e48186612f65565b905081810360408301526131f88185612f65565b9050818103606083015261320c8184612f65565b905095945050505050565b600060208201905081810360008301526132318184612f9e565b905092915050565b600060208201905061324e60008301846130a2565b92915050565b600060608201905061326960008301866130a2565b818103602083015261327b8185612f65565b9050818103604083015261328f8184612f65565b9050949350505050565b600060a0820190506132ae60008301886130a2565b81810360208301526132c08187612f65565b905081810360408301526132d48186612f65565b905081810360608301526132e88185612f65565b905081810360808301526132fc8184612f65565b90509695505050505050565b6000613312613323565b905061331e8282613537565b919050565b6000604051905090565b600067ffffffffffffffff8211156133485761334761360f565b5b6133518261363e565b9050602081019050919050565b6000819050602082019050919050565b6000819050602082019050919050565b600081519050919050565b600081519050919050565b600081519050919050565b6000602082019050919050565b6000602082019050919050565b600082825260208201905092915050565b600082825260208201905092915050565b600082825260208201905092915050565b600082825260208201905092915050565b6000613408826134b9565b9150613413836134b9565b9250827fffffffffffffffffffffffffffffffffffffffffffffffffffffffffffffffff03821115613448576134476135b1565b5b828201905092915050565b600061345e826134b9565b9150613469836134b9565b92508282101561347c5761347b6135b1565b5b828203905092915050565b600061349282613499565b9050919050565b600073ffffffffffffffffffffffffffffffffffffffff82169050919050565b6000819050919050565b82818337600083830152505050565b60005b838110156134f05780820151818401526020810190506134d5565b838111156134ff576000848401525b50505050565b6000600282049050600182168061351d57607f821691505b60208210811415613531576135306135e0565b5b50919050565b6135408261363e565b810181811067ffffffffffffffff8211171561355f5761355e61360f565b5b80604052505050565b6000613573826134b9565b91507fffffffffffffffffffffffffffffffffffffffffffffffffffffffffffffffff8214156135a6576135a56135b1565b5b600182019050919050565b7f4e487b7100000000000000000000000000000000000000000000000000000000600052601160045260246000fd5b7f4e487b7100000000000000000000000000000000000000000000000000000000600052602260045260246000fd5b7f4e487b7100000000000000000000000000000000000000000000000000000000600052604160045260246000fd5b6000601f19601f8301169050919050565b61365881613487565b811461366357600080fd5b50565b61366f816134b9565b811461367a57600080fd5b5056fea26469706673582212201a9c67da6d143a9a4d87fd62352d2d82dc05a56955f4c617a5ad8ac758ebb07664736f6c63430008040033",
  "linkReferences": {},
  "deployedLinkReferences": {}
}