{
  "_format": "hh-sol-artifact-1",
  "contractName": "MetaCard",
  "sourceName": "contracts/MetaCard.sol",
  "abi": [
    {
      "anonymous": false,
      "inputs": [
        {
          "indexed": false,
          "internalType": "address",
          "name": "owner",
          "type": "address"
        },
        {
          "indexed": false,
          "internalType": "address",
          "name": "contactAddress",
          "type": "address"
        }
      ],
      "name": "AddContact",
      "type": "event"
    },
    {
      "anonymous": false,
      "inputs": [
        {
          "indexed": true,
          "internalType": "address",
          "name": "_owner",
          "type": "address"
        },
        {
          "indexed": false,
          "internalType": "uint256",
          "name": "id",
          "type": "uint256"
        },
        {
          "indexed": false,
          "internalType": "string",
          "name": "name",
          "type": "string"
        },
        {
          "indexed": false,
          "internalType": "string",
          "name": "link",
          "type": "string"
        }
      ],
      "name": "AddSocialLink",
      "type": "event"
    },
    {
      "anonymous": false,
      "inputs": [
        {
          "indexed": true,
          "internalType": "address",
          "name": "_owner",
          "type": "address"
        },
        {
          "indexed": false,
          "internalType": "uint256",
          "name": "id",
          "type": "uint256"
        },
        {
          "indexed": false,
          "internalType": "string",
          "name": "fullName",
          "type": "string"
        },
        {
          "indexed": false,
          "internalType": "string",
          "name": "title",
          "type": "string"
        },
        {
          "indexed": false,
          "internalType": "string",
          "name": "email",
          "type": "string"
        },
        {
          "indexed": false,
          "internalType": "string",
          "name": "phoneNumber",
          "type": "string"
        }
      ],
      "name": "CreateBusinessCard",
      "type": "event"
    },
    {
      "anonymous": false,
      "inputs": [
        {
          "indexed": false,
          "internalType": "address",
          "name": "owner",
          "type": "address"
        },
        {
          "indexed": false,
          "internalType": "address",
          "name": "contactAddress",
          "type": "address"
        }
      ],
      "name": "RemoveContact",
      "type": "event"
    },
    {
      "anonymous": false,
      "inputs": [
        {
          "indexed": true,
          "internalType": "address",
          "name": "_owner",
          "type": "address"
        },
        {
          "indexed": false,
          "internalType": "uint256",
          "name": "id",
          "type": "uint256"
        }
      ],
      "name": "RemoveSocialLink",
      "type": "event"
    },
    {
      "anonymous": false,
      "inputs": [
        {
          "indexed": true,
          "internalType": "address",
          "name": "_owner",
          "type": "address"
        },
        {
          "indexed": false,
          "internalType": "string",
          "name": "fullName",
          "type": "string"
        },
        {
          "indexed": false,
          "internalType": "string",
          "name": "title",
          "type": "string"
        },
        {
          "indexed": false,
          "internalType": "string",
          "name": "email",
          "type": "string"
        },
        {
          "indexed": false,
          "internalType": "string",
          "name": "phoneNumber",
          "type": "string"
        }
      ],
      "name": "UpdateBusinessCard",
      "type": "event"
    },
    {
      "anonymous": false,
      "inputs": [
        {
          "indexed": true,
          "internalType": "address",
          "name": "_owner",
          "type": "address"
        },
        {
          "indexed": false,
          "internalType": "uint256",
          "name": "id",
          "type": "uint256"
        },
        {
          "indexed": false,
          "internalType": "string",
          "name": "name",
          "type": "string"
        },
        {
          "indexed": false,
          "internalType": "string",
          "name": "link",
          "type": "string"
        }
      ],
      "name": "UpdateSocialLink",
      "type": "event"
    },
    {
      "inputs": [
        {
          "internalType": "address",
          "name": "_contact",
          "type": "address"
        }
      ],
      "name": "addContact",
      "outputs": [],
      "stateMutability": "nonpayable",
      "type": "function"
    },
    {
      "inputs": [
        {
          "internalType": "string",
          "name": "_name",
          "type": "string"
        },
        {
          "internalType": "string",
          "name": "_link",
          "type": "string"
        }
      ],
      "name": "addSocialLink",
      "outputs": [],
      "stateMutability": "nonpayable",
      "type": "function"
    },
    {
      "inputs": [
        {
          "internalType": "address",
          "name": "",
          "type": "address"
        }
      ],
      "name": "allBusinessCards",
      "outputs": [
        {
          "internalType": "address",
          "name": "owner",
          "type": "address"
        },
        {
          "internalType": "uint256",
          "name": "id",
          "type": "uint256"
        },
        {
          "internalType": "string",
          "name": "fullName",
          "type": "string"
        },
        {
          "internalType": "string",
          "name": "title",
          "type": "string"
        },
        {
          "internalType": "string",
          "name": "email",
          "type": "string"
        },
        {
          "internalType": "string",
          "name": "phoneNumber",
          "type": "string"
        }
      ],
      "stateMutability": "view",
      "type": "function"
    },
    {
      "inputs": [
        {
          "internalType": "address",
          "name": "",
          "type": "address"
        },
        {
          "internalType": "uint256",
          "name": "",
          "type": "uint256"
        }
      ],
      "name": "contacts",
      "outputs": [
        {
          "internalType": "address",
          "name": "",
          "type": "address"
        }
      ],
      "stateMutability": "view",
      "type": "function"
    },
    {
      "inputs": [
        {
          "internalType": "string",
          "name": "_fullName",
          "type": "string"
        },
        {
          "internalType": "string",
          "name": "_title",
          "type": "string"
        },
        {
          "internalType": "string",
          "name": "_email",
          "type": "string"
        },
        {
          "internalType": "string",
          "name": "_phoneNumber",
          "type": "string"
        }
      ],
      "name": "createBusinessCard",
      "outputs": [],
      "stateMutability": "nonpayable",
      "type": "function"
    },
    {
      "inputs": [],
      "name": "getAllContacts",
      "outputs": [
        {
          "internalType": "address[]",
          "name": "",
          "type": "address[]"
        }
      ],
      "stateMutability": "view",
      "type": "function"
    },
    {
      "inputs": [],
      "name": "getBusinessCard",
      "outputs": [
        {
          "components": [
            {
              "internalType": "address",
              "name": "owner",
              "type": "address"
            },
            {
              "internalType": "uint256",
              "name": "id",
              "type": "uint256"
            },
            {
              "internalType": "string",
              "name": "fullName",
              "type": "string"
            },
            {
              "internalType": "string",
              "name": "title",
              "type": "string"
            },
            {
              "internalType": "string",
              "name": "email",
              "type": "string"
            },
            {
              "internalType": "string",
              "name": "phoneNumber",
              "type": "string"
            }
          ],
          "internalType": "struct MetaCard.BusinessCard",
          "name": "",
          "type": "tuple"
        }
      ],
      "stateMutability": "view",
      "type": "function"
    },
    {
      "inputs": [
        {
          "internalType": "address",
          "name": "_address",
          "type": "address"
        }
      ],
      "name": "getBusinessCardByAddress",
      "outputs": [
        {
          "components": [
            {
              "internalType": "address",
              "name": "owner",
              "type": "address"
            },
            {
              "internalType": "uint256",
              "name": "id",
              "type": "uint256"
            },
            {
              "internalType": "string",
              "name": "fullName",
              "type": "string"
            },
            {
              "internalType": "string",
              "name": "title",
              "type": "string"
            },
            {
              "internalType": "string",
              "name": "email",
              "type": "string"
            },
            {
              "internalType": "string",
              "name": "phoneNumber",
              "type": "string"
            }
          ],
          "internalType": "struct MetaCard.BusinessCard",
          "name": "",
          "type": "tuple"
        }
      ],
      "stateMutability": "view",
      "type": "function"
    },
    {
      "inputs": [],
      "name": "getBusinessCardsCount",
      "outputs": [
        {
          "internalType": "uint256",
          "name": "",
          "type": "uint256"
        }
      ],
      "stateMutability": "view",
      "type": "function"
    },
    {
      "inputs": [],
      "name": "getContactsCount",
      "outputs": [
        {
          "internalType": "uint256",
          "name": "",
          "type": "uint256"
        }
      ],
      "stateMutability": "view",
      "type": "function"
    },
    {
      "inputs": [],
      "name": "getSocialLinks",
      "outputs": [
        {
          "components": [
            {
              "internalType": "uint256",
              "name": "id",
              "type": "uint256"
            },
            {
              "internalType": "string",
              "name": "name",
              "type": "string"
            },
            {
              "internalType": "string",
              "name": "link",
              "type": "string"
            }
          ],
          "internalType": "struct MetaCard.SocialLink[]",
          "name": "",
          "type": "tuple[]"
        }
      ],
      "stateMutability": "view",
      "type": "function"
    },
    {
      "inputs": [
        {
          "internalType": "address",
          "name": "_address",
          "type": "address"
        }
      ],
      "name": "getSocialLinksByAddress",
      "outputs": [
        {
          "components": [
            {
              "internalType": "uint256",
              "name": "id",
              "type": "uint256"
            },
            {
              "internalType": "string",
              "name": "name",
              "type": "string"
            },
            {
              "internalType": "string",
              "name": "link",
              "type": "string"
            }
          ],
          "internalType": "struct MetaCard.SocialLink[]",
          "name": "",
          "type": "tuple[]"
        }
      ],
      "stateMutability": "view",
      "type": "function"
    },
    {
      "inputs": [],
      "name": "getSocialLinksCount",
      "outputs": [
        {
          "internalType": "uint256",
          "name": "",
          "type": "uint256"
        }
      ],
      "stateMutability": "view",
      "type": "function"
    },
    {
      "inputs": [
        {
          "internalType": "address",
          "name": "_contact",
          "type": "address"
        }
      ],
      "name": "removeContact",
      "outputs": [],
      "stateMutability": "nonpayable",
      "type": "function"
    },
    {
      "inputs": [
        {
          "internalType": "uint256",
          "name": "_id",
          "type": "uint256"
        }
      ],
      "name": "removeSocialLink",
      "outputs": [],
      "stateMutability": "nonpayable",
      "type": "function"
    },
    {
      "inputs": [
        {
          "internalType": "address",
          "name": "",
          "type": "address"
        },
        {
          "internalType": "uint256",
          "name": "",
          "type": "uint256"
        }
      ],
      "name": "socialLinks",
      "outputs": [
        {
          "internalType": "uint256",
          "name": "id",
          "type": "uint256"
        },
        {
          "internalType": "string",
          "name": "name",
          "type": "string"
        },
        {
          "internalType": "string",
          "name": "link",
          "type": "string"
        }
      ],
      "stateMutability": "view",
      "type": "function"
    },
    {
      "inputs": [
        {
          "internalType": "string",
          "name": "_fullName",
          "type": "string"
        },
        {
          "internalType": "string",
          "name": "_title",
          "type": "string"
        },
        {
          "internalType": "string",
          "name": "_email",
          "type": "string"
        },
        {
          "internalType": "string",
          "name": "_phoneNumber",
          "type": "string"
        }
      ],
      "name": "updateBusinessCard",
      "outputs": [],
      "stateMutability": "nonpayable",
      "type": "function"
    },
    {
      "inputs": [
        {
          "internalType": "uint256",
          "name": "_id",
          "type": "uint256"
        },
        {
          "internalType": "string",
          "name": "_name",
          "type": "string"
        },
        {
          "internalType": "string",
          "name": "_link",
          "type": "string"
        }
      ],
      "name": "updateSocialLink",
      "outputs": [],
      "stateMutability": "nonpayable",
      "type": "function"
    }
  ],
  "bytecode": "0x608060405234801561001057600080fd5b506138fa806100206000396000f3fe608060405234801561001057600080fd5b50600436106101165760003560e01c8063a6a66072116100a2578063d9d3fa6411610071578063d9d3fa64146102d2578063de9a345e146102ee578063e08a25541461031e578063ef1d6ddd1461033a578063ff1aca1f1461035857610116565b8063a6a6607214610247578063b838f08014610263578063d02969ee14610298578063d0e5cb25146102b457610116565b806331409541116100e957806331409541146101a55780635a344121146101c157806379600b33146101f15780639dc623bf1461020f578063a414b3791461022b57610116565b806302a326b01461011b5780630a8f41b4146101395780630c4257fa146101575780632d5f20b314610175575b600080fd5b61012361038a565b6040516101309190613480565b60405180910390f35b6101416103d4565b60405161014e91906133db565b60405180910390f35b61015f61059e565b60405161016c919061345e565b60405180910390f35b61018f600480360381019061018a9190612e1a565b61089d565b60405161019c919061345e565b60405180910390f35b6101bf60048036038101906101ba9190612eeb565b610c40565b005b6101db60048036038101906101d69190612e1a565b6110bd565b6040516101e891906133db565b60405180910390f35b6101f96112c9565b6040516102069190613480565b60405180910390f35b61022960048036038101906102249190612fae565b6112d2565b005b61024560048036038101906102409190612e1a565b61167d565b005b610261600480360381019061025c9190612e1a565b611af4565b005b61027d60048036038101906102789190612e1a565b611f5c565b60405161028f9695949392919061333c565b60405180910390f35b6102b260048036038101906102ad9190612eeb565b6121d8565b005b6102bc61239b565b6040516102c99190613480565b60405180910390f35b6102ec60048036038101906102e79190612e7f565b6123e5565b005b61030860048036038101906103039190612e43565b612564565b60405161031591906132f8565b60405180910390f35b61033860048036038101906103339190612fd7565b6125b2565b005b6103426129aa565b60405161034f91906133b9565b60405180910390f35b610372600480360381019061036d9190612e43565b612a75565b6040516103819392919061349b565b60405180910390f35b6000600260003373ffffffffffffffffffffffffffffffffffffffff1673ffffffffffffffffffffffffffffffffffffffff16815260200190815260200160002080549050905090565b6060600260003373ffffffffffffffffffffffffffffffffffffffff1673ffffffffffffffffffffffffffffffffffffffff168152602001908152602001600020805480602002602001604051908101604052809291908181526020016000905b828210156105955783829060005260206000209060030201604051806060016040529081600082015481526020016001820180546104729061374c565b80601f016020809104026020016040519081016040528092919081815260200182805461049e9061374c565b80156104eb5780601f106104c0576101008083540402835291602001916104eb565b820191906000526020600020905b8154815290600101906020018083116104ce57829003601f168201915b505050505081526020016002820180546105049061374c565b80601f01602080910402602001604051908101604052809291908181526020018280546105309061374c565b801561057d5780601f106105525761010080835404028352916020019161057d565b820191906000526020600020905b81548152906001019060200180831161056057829003601f168201915b50505050508152505081526020019060010190610435565b50505050905090565b6105a6612bcc565b600160003373ffffffffffffffffffffffffffffffffffffffff1673ffffffffffffffffffffffffffffffffffffffff1681526020019081526020016000206040518060c00160405290816000820160009054906101000a900473ffffffffffffffffffffffffffffffffffffffff1673ffffffffffffffffffffffffffffffffffffffff1673ffffffffffffffffffffffffffffffffffffffff168152602001600182015481526020016002820180546106609061374c565b80601f016020809104026020016040519081016040528092919081815260200182805461068c9061374c565b80156106d95780601f106106ae576101008083540402835291602001916106d9565b820191906000526020600020905b8154815290600101906020018083116106bc57829003601f168201915b505050505081526020016003820180546106f29061374c565b80601f016020809104026020016040519081016040528092919081815260200182805461071e9061374c565b801561076b5780601f106107405761010080835404028352916020019161076b565b820191906000526020600020905b81548152906001019060200180831161074e57829003601f168201915b505050505081526020016004820180546107849061374c565b80601f01602080910402602001604051908101604052809291908181526020018280546107b09061374c565b80156107fd5780601f106107d2576101008083540402835291602001916107fd565b820191906000526020600020905b8154815290600101906020018083116107e057829003601f168201915b505050505081526020016005820180546108169061374c565b80601f01602080910402602001604051908101604052809291908181526020018280546108429061374c565b801561088f5780601f106108645761010080835404028352916020019161088f565b820191906000526020600020905b81548152906001019060200180831161087257829003601f168201915b505050505081525050905090565b6108a5612bcc565b600073ffffffffffffffffffffffffffffffffffffffff16600160008473ffffffffffffffffffffffffffffffffffffffff1673ffffffffffffffffffffffffffffffffffffffff16815260200190815260200160002060000160009054906101000a900473ffffffffffffffffffffffffffffffffffffffff1673ffffffffffffffffffffffffffffffffffffffff16141561094157600080fd5b6000600160008473ffffffffffffffffffffffffffffffffffffffff1673ffffffffffffffffffffffffffffffffffffffff1681526020019081526020016000206040518060c00160405290816000820160009054906101000a900473ffffffffffffffffffffffffffffffffffffffff1673ffffffffffffffffffffffffffffffffffffffff1673ffffffffffffffffffffffffffffffffffffffff168152602001600182015481526020016002820180546109fd9061374c565b80601f0160208091040260200160405190810160405280929190818152602001828054610a299061374c565b8015610a765780601f10610a4b57610100808354040283529160200191610a76565b820191906000526020600020905b815481529060010190602001808311610a5957829003601f168201915b50505050508152602001600382018054610a8f9061374c565b80601f0160208091040260200160405190810160405280929190818152602001828054610abb9061374c565b8015610b085780601f10610add57610100808354040283529160200191610b08565b820191906000526020600020905b815481529060010190602001808311610aeb57829003601f168201915b50505050508152602001600482018054610b219061374c565b80601f0160208091040260200160405190810160405280929190818152602001828054610b4d9061374c565b8015610b9a5780601f10610b6f57610100808354040283529160200191610b9a565b820191906000526020600020905b815481529060010190602001808311610b7d57829003601f168201915b50505050508152602001600582018054610bb39061374c565b80601f0160208091040260200160405190810160405280929190818152602001828054610bdf9061374c565b8015610c2c5780601f10610c0157610100808354040283529160200191610c2c565b820191906000526020600020905b815481529060010190602001808311610c0f57829003601f168201915b505050505081525050905080915050919050565b6000600160003373ffffffffffffffffffffffffffffffffffffffff1673ffffffffffffffffffffffffffffffffffffffff1681526020019081526020016000206040518060c00160405290816000820160009054906101000a900473ffffffffffffffffffffffffffffffffffffffff1673ffffffffffffffffffffffffffffffffffffffff1673ffffffffffffffffffffffffffffffffffffffff16815260200160018201548152602001600282018054610cfc9061374c565b80601f0160208091040260200160405190810160405280929190818152602001828054610d289061374c565b8015610d755780601f10610d4a57610100808354040283529160200191610d75565b820191906000526020600020905b815481529060010190602001808311610d5857829003601f168201915b50505050508152602001600382018054610d8e9061374c565b80601f0160208091040260200160405190810160405280929190818152602001828054610dba9061374c565b8015610e075780601f10610ddc57610100808354040283529160200191610e07565b820191906000526020600020905b815481529060010190602001808311610dea57829003601f168201915b50505050508152602001600482018054610e209061374c565b80601f0160208091040260200160405190810160405280929190818152602001828054610e4c9061374c565b8015610e995780601f10610e6e57610100808354040283529160200191610e99565b820191906000526020600020905b815481529060010190602001808311610e7c57829003601f168201915b50505050508152602001600582018054610eb29061374c565b80601f0160208091040260200160405190810160405280929190818152602001828054610ede9061374c565b8015610f2b5780601f10610f0057610100808354040283529160200191610f2b565b820191906000526020600020905b815481529060010190602001808311610f0e57829003601f168201915b5050505050815250509050848160400181905250838160600181905250828160800181905250818160a0018190525080600160003373ffffffffffffffffffffffffffffffffffffffff1673ffffffffffffffffffffffffffffffffffffffff16815260200190815260200160002060008201518160000160006101000a81548173ffffffffffffffffffffffffffffffffffffffff021916908373ffffffffffffffffffffffffffffffffffffffff160217905550602082015181600101556040820151816002019080519060200190611007929190612c18565b506060820151816003019080519060200190611024929190612c18565b506080820151816004019080519060200190611041929190612c18565b5060a082015181600501908051906020019061105e929190612c18565b509050503373ffffffffffffffffffffffffffffffffffffffff167fd5a43b2049b40ce6d1c3175b5e4a5084585cda50ef709abacb6ddfa2ccd2e097868686866040516110ae94939291906133fd565b60405180910390a25050505050565b6060600073ffffffffffffffffffffffffffffffffffffffff168273ffffffffffffffffffffffffffffffffffffffff1614156110f957600080fd5b6000600260008473ffffffffffffffffffffffffffffffffffffffff1673ffffffffffffffffffffffffffffffffffffffff168152602001908152602001600020805480602002602001604051908101604052809291908181526020016000905b828210156112ba5783829060005260206000209060030201604051806060016040529081600082015481526020016001820180546111979061374c565b80601f01602080910402602001604051908101604052809291908181526020018280546111c39061374c565b80156112105780601f106111e557610100808354040283529160200191611210565b820191906000526020600020905b8154815290600101906020018083116111f357829003601f168201915b505050505081526020016002820180546112299061374c565b80601f01602080910402602001604051908101604052809291908181526020018280546112559061374c565b80156112a25780601f10611277576101008083540402835291602001916112a2565b820191906000526020600020905b81548152906001019060200180831161128557829003601f168201915b5050505050815250508152602001906001019061115a565b50505050905080915050919050565b60008054905090565b600081116112df57600080fd5b60005b600260003373ffffffffffffffffffffffffffffffffffffffff1673ffffffffffffffffffffffffffffffffffffffff1681526020019081526020016000208054905081101561162b5781600260003373ffffffffffffffffffffffffffffffffffffffff1673ffffffffffffffffffffffffffffffffffffffff16815260200190815260200160002082815481106113a4577f4e487b7100000000000000000000000000000000000000000000000000000000600052603260045260246000fd5b906000526020600020906003020160000154141561161857600260003373ffffffffffffffffffffffffffffffffffffffff1673ffffffffffffffffffffffffffffffffffffffff1681526020019081526020016000206001600260003373ffffffffffffffffffffffffffffffffffffffff1673ffffffffffffffffffffffffffffffffffffffff1681526020019081526020016000208054905061144a919061369a565b81548110611481577f4e487b7100000000000000000000000000000000000000000000000000000000600052603260045260246000fd5b9060005260206000209060030201600260003373ffffffffffffffffffffffffffffffffffffffff1673ffffffffffffffffffffffffffffffffffffffff1681526020019081526020016000208281548110611506577f4e487b7100000000000000000000000000000000000000000000000000000000600052603260045260246000fd5b90600052602060002090600302016000820154816000015560018201816001019080546115329061374c565b61153d929190612c9e565b5060028201816002019080546115529061374c565b61155d929190612c9e565b50905050600260003373ffffffffffffffffffffffffffffffffffffffff1673ffffffffffffffffffffffffffffffffffffffff1681526020019081526020016000208054806115d6577f4e487b7100000000000000000000000000000000000000000000000000000000600052603160045260246000fd5b60019003818190600052602060002090600302016000808201600090556001820160006116039190612d2b565b6002820160006116139190612d2b565b505090555b8080611623906137af565b9150506112e2565b503373ffffffffffffffffffffffffffffffffffffffff167fd6434a95f6905e04b83cdd9d4c31641a79891fa44503501ca072e9fa843406f8826040516116729190613480565b60405180910390a250565b600073ffffffffffffffffffffffffffffffffffffffff16600160008373ffffffffffffffffffffffffffffffffffffffff1673ffffffffffffffffffffffffffffffffffffffff16815260200190815260200160002060000160009054906101000a900473ffffffffffffffffffffffffffffffffffffffff1673ffffffffffffffffffffffffffffffffffffffff16141561171957600080fd5b6000600160008373ffffffffffffffffffffffffffffffffffffffff1673ffffffffffffffffffffffffffffffffffffffff1681526020019081526020016000206040518060c00160405290816000820160009054906101000a900473ffffffffffffffffffffffffffffffffffffffff1673ffffffffffffffffffffffffffffffffffffffff1673ffffffffffffffffffffffffffffffffffffffff168152602001600182015481526020016002820180546117d59061374c565b80601f01602080910402602001604051908101604052809291908181526020018280546118019061374c565b801561184e5780601f106118235761010080835404028352916020019161184e565b820191906000526020600020905b81548152906001019060200180831161183157829003601f168201915b505050505081526020016003820180546118679061374c565b80601f01602080910402602001604051908101604052809291908181526020018280546118939061374c565b80156118e05780601f106118b5576101008083540402835291602001916118e0565b820191906000526020600020905b8154815290600101906020018083116118c357829003601f168201915b505050505081526020016004820180546118f99061374c565b80601f01602080910402602001604051908101604052809291908181526020018280546119259061374c565b80156119725780601f1061194757610100808354040283529160200191611972565b820191906000526020600020905b81548152906001019060200180831161195557829003601f168201915b5050505050815260200160058201805461198b9061374c565b80601f01602080910402602001604051908101604052809291908181526020018280546119b79061374c565b8015611a045780601f106119d957610100808354040283529160200191611a04565b820191906000526020600020905b8154815290600101906020018083116119e757829003601f168201915b5050505050815250509050600360003373ffffffffffffffffffffffffffffffffffffffff1673ffffffffffffffffffffffffffffffffffffffff16815260200190815260200160002081600001519080600181540180825580915050600190039060005260206000200160009091909190916101000a81548173ffffffffffffffffffffffffffffffffffffffff021916908373ffffffffffffffffffffffffffffffffffffffff1602179055507fdfbd93ccce7cce70f7d5aec1acabeb8cc91947b541fc4814bc1cb0032e72f4bf338260000151604051611ae8929190613313565b60405180910390a15050565b600073ffffffffffffffffffffffffffffffffffffffff16600160008373ffffffffffffffffffffffffffffffffffffffff1673ffffffffffffffffffffffffffffffffffffffff16815260200190815260200160002060000160009054906101000a900473ffffffffffffffffffffffffffffffffffffffff1673ffffffffffffffffffffffffffffffffffffffff161415611b9057600080fd5b60005b600360003373ffffffffffffffffffffffffffffffffffffffff1673ffffffffffffffffffffffffffffffffffffffff16815260200190815260200160002080549050811015611f1f578173ffffffffffffffffffffffffffffffffffffffff16600360003373ffffffffffffffffffffffffffffffffffffffff1673ffffffffffffffffffffffffffffffffffffffff1681526020019081526020016000208281548110611c6b577f4e487b7100000000000000000000000000000000000000000000000000000000600052603260045260246000fd5b9060005260206000200160009054906101000a900473ffffffffffffffffffffffffffffffffffffffff1673ffffffffffffffffffffffffffffffffffffffff161415611f0c57600360003373ffffffffffffffffffffffffffffffffffffffff1673ffffffffffffffffffffffffffffffffffffffff1681526020019081526020016000206001600360003373ffffffffffffffffffffffffffffffffffffffff1673ffffffffffffffffffffffffffffffffffffffff16815260200190815260200160002080549050611d40919061369a565b81548110611d77577f4e487b7100000000000000000000000000000000000000000000000000000000600052603260045260246000fd5b9060005260206000200160009054906101000a900473ffffffffffffffffffffffffffffffffffffffff16600360003373ffffffffffffffffffffffffffffffffffffffff1673ffffffffffffffffffffffffffffffffffffffff1681526020019081526020016000208281548110611e19577f4e487b7100000000000000000000000000000000000000000000000000000000600052603260045260246000fd5b9060005260206000200160006101000a81548173ffffffffffffffffffffffffffffffffffffffff021916908373ffffffffffffffffffffffffffffffffffffffff160217905550600360003373ffffffffffffffffffffffffffffffffffffffff1673ffffffffffffffffffffffffffffffffffffffff168152602001908152602001600020805480611ed6577f4e487b7100000000000000000000000000000000000000000000000000000000600052603160045260246000fd5b6001900381819060005260206000200160006101000a81549073ffffffffffffffffffffffffffffffffffffffff021916905590555b8080611f17906137af565b915050611b93565b507f9dc408e59857bcd0b3dc14717fde2d817014879698316cb0866fa595215afb7c3382604051611f51929190613313565b60405180910390a150565b60016020528060005260406000206000915090508060000160009054906101000a900473ffffffffffffffffffffffffffffffffffffffff1690806001015490806002018054611fab9061374c565b80601f0160208091040260200160405190810160405280929190818152602001828054611fd79061374c565b80156120245780601f10611ff957610100808354040283529160200191612024565b820191906000526020600020905b81548152906001019060200180831161200757829003601f168201915b5050505050908060030180546120399061374c565b80601f01602080910402602001604051908101604052809291908181526020018280546120659061374c565b80156120b25780601f10612087576101008083540402835291602001916120b2565b820191906000526020600020905b81548152906001019060200180831161209557829003601f168201915b5050505050908060040180546120c79061374c565b80601f01602080910402602001604051908101604052809291908181526020018280546120f39061374c565b80156121405780601f1061211557610100808354040283529160200191612140565b820191906000526020600020905b81548152906001019060200180831161212357829003601f168201915b5050505050908060050180546121559061374c565b80601f01602080910402602001604051908101604052809291908181526020018280546121819061374c565b80156121ce5780601f106121a3576101008083540402835291602001916121ce565b820191906000526020600020905b8154815290600101906020018083116121b157829003601f168201915b5050505050905086565b60016000808282546121ea9190613644565b925050819055506040518060c001604052803373ffffffffffffffffffffffffffffffffffffffff168152602001600054815260200185815260200184815260200183815260200182815250600160003373ffffffffffffffffffffffffffffffffffffffff1673ffffffffffffffffffffffffffffffffffffffff16815260200190815260200160002060008201518160000160006101000a81548173ffffffffffffffffffffffffffffffffffffffff021916908373ffffffffffffffffffffffffffffffffffffffff1602179055506020820151816001015560408201518160020190805190602001906122e2929190612c18565b5060608201518160030190805190602001906122ff929190612c18565b50608082015181600401908051906020019061231c929190612c18565b5060a0820151816005019080519060200190612339929190612c18565b509050503373ffffffffffffffffffffffffffffffffffffffff167f57fe0d750c279e36bd8fdbc0c08b58b5d0dccd55216ff76f0220ffae60acfcd46000548686868660405161238d9594939291906134e0565b60405180910390a250505050565b6000600360003373ffffffffffffffffffffffffffffffffffffffff1673ffffffffffffffffffffffffffffffffffffffff16815260200190815260200160002080549050905090565b6000600260003373ffffffffffffffffffffffffffffffffffffffff1673ffffffffffffffffffffffffffffffffffffffff168152602001908152602001600020805490509050600260003373ffffffffffffffffffffffffffffffffffffffff1673ffffffffffffffffffffffffffffffffffffffff16815260200190815260200160002060405180606001604052806001846124839190613644565b81526020018581526020018481525090806001815401808255809150506001900390600052602060002090600302016000909190919091506000820151816000015560208201518160010190805190602001906124e1929190612c18565b5060408201518160020190805190602001906124fe929190612c18565b5050503373ffffffffffffffffffffffffffffffffffffffff167fd62d3de3a7be21ba4f0c9487c9241b2d56fd32f46008dbb6366cb08b41b7fb576001836125469190613644565b85856040516125579392919061349b565b60405180910390a2505050565b6003602052816000526040600020818154811061258057600080fd5b906000526020600020016000915091509054906101000a900473ffffffffffffffffffffffffffffffffffffffff1681565b600083116125bf57600080fd5b60005b600260003373ffffffffffffffffffffffffffffffffffffffff1673ffffffffffffffffffffffffffffffffffffffff168152602001908152602001600020805490508110156129a45783600260003373ffffffffffffffffffffffffffffffffffffffff1673ffffffffffffffffffffffffffffffffffffffff1681526020019081526020016000208281548110612684577f4e487b7100000000000000000000000000000000000000000000000000000000600052603260045260246000fd5b9060005260206000209060030201600001541415612991576000600260003373ffffffffffffffffffffffffffffffffffffffff1673ffffffffffffffffffffffffffffffffffffffff1681526020019081526020016000208281548110612715577f4e487b7100000000000000000000000000000000000000000000000000000000600052603260045260246000fd5b9060005260206000209060030201604051806060016040529081600082015481526020016001820180546127489061374c565b80601f01602080910402602001604051908101604052809291908181526020018280546127749061374c565b80156127c15780601f10612796576101008083540402835291602001916127c1565b820191906000526020600020905b8154815290600101906020018083116127a457829003601f168201915b505050505081526020016002820180546127da9061374c565b80601f01602080910402602001604051908101604052809291908181526020018280546128069061374c565b80156128535780601f1061282857610100808354040283529160200191612853565b820191906000526020600020905b81548152906001019060200180831161283657829003601f168201915b505050505081525050905083816020018190525082816040018190525080600260003373ffffffffffffffffffffffffffffffffffffffff1673ffffffffffffffffffffffffffffffffffffffff16815260200190815260200160002083815481106128e8577f4e487b7100000000000000000000000000000000000000000000000000000000600052603260045260246000fd5b906000526020600020906003020160008201518160000155602082015181600101908051906020019061291c929190612c18565b506040820151816002019080519060200190612939929190612c18565b509050503373ffffffffffffffffffffffffffffffffffffffff167fd4e149c124d493134d7a0ce3081eda392d02ea193c781e7bf2c9a31d6eea14c78686866040516129879392919061349b565b60405180910390a2505b808061299c906137af565b9150506125c2565b50505050565b6060600360003373ffffffffffffffffffffffffffffffffffffffff1673ffffffffffffffffffffffffffffffffffffffff168152602001908152602001600020805480602002602001604051908101604052809291908181526020018280548015612a6b57602002820191906000526020600020905b8160009054906101000a900473ffffffffffffffffffffffffffffffffffffffff1673ffffffffffffffffffffffffffffffffffffffff1681526020019060010190808311612a21575b5050505050905090565b60026020528160005260406000208181548110612a9157600080fd5b906000526020600020906003020160009150915050806000015490806001018054612abb9061374c565b80601f0160208091040260200160405190810160405280929190818152602001828054612ae79061374c565b8015612b345780601f10612b0957610100808354040283529160200191612b34565b820191906000526020600020905b815481529060010190602001808311612b1757829003601f168201915b505050505090806002018054612b499061374c565b80601f0160208091040260200160405190810160405280929190818152602001828054612b759061374c565b8015612bc25780601f10612b9757610100808354040283529160200191612bc2565b820191906000526020600020905b815481529060010190602001808311612ba557829003601f168201915b5050505050905083565b6040518060c00160405280600073ffffffffffffffffffffffffffffffffffffffff16815260200160008152602001606081526020016060815260200160608152602001606081525090565b828054612c249061374c565b90600052602060002090601f016020900481019282612c465760008555612c8d565b82601f10612c5f57805160ff1916838001178555612c8d565b82800160010185558215612c8d579182015b82811115612c8c578251825591602001919060010190612c71565b5b509050612c9a9190612d6b565b5090565b828054612caa9061374c565b90600052602060002090601f016020900481019282612ccc5760008555612d1a565b82601f10612cdd5780548555612d1a565b82800160010185558215612d1a57600052602060002091601f016020900482015b82811115612d19578254825591600101919060010190612cfe565b5b509050612d279190612d6b565b5090565b508054612d379061374c565b6000825580601f10612d495750612d68565b601f016020900490600052602060002090810190612d679190612d6b565b5b50565b5b80821115612d84576000816000905550600101612d6c565b5090565b6000612d9b612d9684613574565b61354f565b905082815260208101848484011115612db357600080fd5b612dbe84828561370a565b509392505050565b600081359050612dd581613896565b92915050565b600082601f830112612dec57600080fd5b8135612dfc848260208601612d88565b91505092915050565b600081359050612e14816138ad565b92915050565b600060208284031215612e2c57600080fd5b6000612e3a84828501612dc6565b91505092915050565b60008060408385031215612e5657600080fd5b6000612e6485828601612dc6565b9250506020612e7585828601612e05565b9150509250929050565b60008060408385031215612e9257600080fd5b600083013567ffffffffffffffff811115612eac57600080fd5b612eb885828601612ddb565b925050602083013567ffffffffffffffff811115612ed557600080fd5b612ee185828601612ddb565b9150509250929050565b60008060008060808587031215612f0157600080fd5b600085013567ffffffffffffffff811115612f1b57600080fd5b612f2787828801612ddb565b945050602085013567ffffffffffffffff811115612f4457600080fd5b612f5087828801612ddb565b935050604085013567ffffffffffffffff811115612f6d57600080fd5b612f7987828801612ddb565b925050606085013567ffffffffffffffff811115612f9657600080fd5b612fa287828801612ddb565b91505092959194509250565b600060208284031215612fc057600080fd5b6000612fce84828501612e05565b91505092915050565b600080600060608486031215612fec57600080fd5b6000612ffa86828701612e05565b935050602084013567ffffffffffffffff81111561301757600080fd5b61302386828701612ddb565b925050604084013567ffffffffffffffff81111561304057600080fd5b61304c86828701612ddb565b9150509250925092565b60006130628383613082565b60208301905092915050565b600061307a8383613283565b905092915050565b61308b816136ce565b82525050565b61309a816136ce565b82525050565b60006130ab826135c5565b6130b58185613600565b93506130c0836135a5565b8060005b838110156130f15781516130d88882613056565b97506130e3836135e6565b9250506001810190506130c4565b5085935050505092915050565b6000613109826135d0565b6131138185613611565b935083602082028501613125856135b5565b8060005b858110156131615784840389528151613142858261306e565b945061314d836135f3565b925060208a01995050600181019050613129565b50829750879550505050505092915050565b600061317e826135db565b6131888185613622565b9350613198818560208601613719565b6131a181613885565b840191505092915050565b60006131b7826135db565b6131c18185613633565b93506131d1818560208601613719565b6131da81613885565b840191505092915050565b600060c0830160008301516131fd6000860182613082565b50602083015161321060208601826132da565b50604083015184820360408601526132288282613173565b915050606083015184820360608601526132428282613173565b9150506080830151848203608086015261325c8282613173565b91505060a083015184820360a08601526132768282613173565b9150508091505092915050565b600060608301600083015161329b60008601826132da565b50602083015184820360208601526132b38282613173565b915050604083015184820360408601526132cd8282613173565b9150508091505092915050565b6132e381613700565b82525050565b6132f281613700565b82525050565b600060208201905061330d6000830184613091565b92915050565b60006040820190506133286000830185613091565b6133356020830184613091565b9392505050565b600060c0820190506133516000830189613091565b61335e60208301886132e9565b818103604083015261337081876131ac565b9050818103606083015261338481866131ac565b9050818103608083015261339881856131ac565b905081810360a08301526133ac81846131ac565b9050979650505050505050565b600060208201905081810360008301526133d381846130a0565b905092915050565b600060208201905081810360008301526133f581846130fe565b905092915050565b6000608082019050818103600083015261341781876131ac565b9050818103602083015261342b81866131ac565b9050818103604083015261343f81856131ac565b9050818103606083015261345381846131ac565b905095945050505050565b6000602082019050818103600083015261347881846131e5565b905092915050565b600060208201905061349560008301846132e9565b92915050565b60006060820190506134b060008301866132e9565b81810360208301526134c281856131ac565b905081810360408301526134d681846131ac565b9050949350505050565b600060a0820190506134f560008301886132e9565b818103602083015261350781876131ac565b9050818103604083015261351b81866131ac565b9050818103606083015261352f81856131ac565b9050818103608083015261354381846131ac565b90509695505050505050565b600061355961356a565b9050613565828261377e565b919050565b6000604051905090565b600067ffffffffffffffff82111561358f5761358e613856565b5b61359882613885565b9050602081019050919050565b6000819050602082019050919050565b6000819050602082019050919050565b600081519050919050565b600081519050919050565b600081519050919050565b6000602082019050919050565b6000602082019050919050565b600082825260208201905092915050565b600082825260208201905092915050565b600082825260208201905092915050565b600082825260208201905092915050565b600061364f82613700565b915061365a83613700565b9250827fffffffffffffffffffffffffffffffffffffffffffffffffffffffffffffffff0382111561368f5761368e6137f8565b5b828201905092915050565b60006136a582613700565b91506136b083613700565b9250828210156136c3576136c26137f8565b5b828203905092915050565b60006136d9826136e0565b9050919050565b600073ffffffffffffffffffffffffffffffffffffffff82169050919050565b6000819050919050565b82818337600083830152505050565b60005b8381101561373757808201518184015260208101905061371c565b83811115613746576000848401525b50505050565b6000600282049050600182168061376457607f821691505b6020821081141561377857613777613827565b5b50919050565b61378782613885565b810181811067ffffffffffffffff821117156137a6576137a5613856565b5b80604052505050565b60006137ba82613700565b91507fffffffffffffffffffffffffffffffffffffffffffffffffffffffffffffffff8214156137ed576137ec6137f8565b5b600182019050919050565b7f4e487b7100000000000000000000000000000000000000000000000000000000600052601160045260246000fd5b7f4e487b7100000000000000000000000000000000000000000000000000000000600052602260045260246000fd5b7f4e487b7100000000000000000000000000000000000000000000000000000000600052604160045260246000fd5b6000601f19601f8301169050919050565b61389f816136ce565b81146138aa57600080fd5b50565b6138b681613700565b81146138c157600080fd5b5056fea2646970667358221220afd59d7664cd24cc5a95e9be43a1b67b8821be3d4e3b07ff6b2d20ada21e9b1564736f6c63430008040033",
  "linkReferences": {},
  "deployedLinkReferences": {}
}